:020000040800F2
:10000000A84300202D03000835030008370300082B
:10001000390300083B0300083D030008000000000E
:100020000000000000000000000000006D02000859
:100030004103000800000000C9020008F91A000886
:100040004703000847030008470300084703000868
:100050004703000847030008470300084703000858
:100060004703000847030008470300084703000848
:100070004703000847030008470300084703000838
:100080004703000847030008470300084703000828
:100090004703000847030008470300084703000818
:1000A0004703000847030008470300084703000808
:1000B00047030008470300084703000847030008F8
:1000C00047030008470300084703000847030008E8
:1000D00047030008451B00084703000847030008C2
:1000E00047030008470300084703000847030008C8
:1000F00047030008470300084703000847030008B8
:1001000047030008470300084703000847030008A7
:100110004703000847030008470300084703000897
:100120004703000847030008470300084703000887
:100130004703000847030008470300084703000877
:100140004703000847030008470300084703000867
:100150004703000847030008470300084703000857
:100160004703000847030008470300084703000847
:100170004703000847030008470300080000000089
:100180004703000847030008470300084703000827
:100190004703000847030008470300084703000817
:1001A00047030008470300084703000800F002F86F
:1001B00000F04CF80AA090E8000C82448344AAF1B5
:1001C0000107DA4501D100F041F8AFF2090EBAE8B3
:1001D0000F0013F0010F18BFFB1A43F0010318477B
:1001E0005C2C00007C2C0000103A24BF78C878C139
:1001F000FAD8520724BF30C830C144BF04680C602D
:10020000704700000023002400250026103A28BF74
:1002100078C1FBD8520728BF30C148BF0B60704778
:10022000662902F0BF85752900F0B4800020704770
:100230001FB502F0B2FD00F06FFC040000200021A9
:1002400002F01EFDE0601FBD10B510BD00F060FDA6
:100250001146FFF7EDFF01F011FD00F07EFD03B444
:10026000FFF7F2FF03BC00F0C1FD00002C4B196842
:100270000868B0E8F04F80F30988BFF36F8F4FF044
:10028000000080F3118870470000000008480068F3
:10029000006880F308884FF0000080F3148862B68D
:1002A00061B6BFF34F8FBFF36F8F00DF00BF00BF9A
:1002B00008ED00E0DFF80C00016841F47001016016
:1002C000704700BF88ED00E0EFF30980BFF36F8F48
:1002D000134B1A681EF0100F08BF20ED108A20E99A
:1002E000F04F106009B44FF0500080F31188BFF355
:1002F0004F8FBFF36F8F02F05DF84FF0000080F377
:10030000118809BC19680868B0E8F04F1EF0100F9A
:1003100008BFB0EC108A80F30988BFF36F8F704775
:1003200014000020EFF30580704700000948804763
:1003300009480047FEE7FEE7FEE7FEE7FEE7FEE7C7
:10034000FEE7FEE7FEE7FEE704480549054A064BDF
:1003500070470000251B0008AD010008A83D0020E3
:10036000A8430020A83F0020A83F00200FB41CB5E0
:10037000074B06AA7B4469460090059800F081FB74
:100380000020694600F090FB1CBC5DF814FB0000E7
:10039000310700002DE9F041064600241068752958
:1003A000314616A510D0AFF30080002802DA404293
:1003B00013A507E031688A0701D512A502E04907B5
:1003C00004D511A5012401E0AFF3008000210A2229
:1003D00006F1240709E0B0FBF2FCB0FBF2F302FBEC
:1003E0001C00303078541846491C0028F3D12346AD
:1003F0002A463046BDE8F04100F0D7B800000000C2
:100400002D0000002B000000200000002DE9F04727
:100410004FF0000A89460446C0F820A02046E16853
:100420008847002876D0252806D0D4E901219047B6
:10043000206A401C2062F1E7E168204600258847D9
:10044000C4F81CA006460027C4F818A02A2E09D01C
:10045000304601F00CFC38B304EB8708303EC8F896
:10046000186019E059F8041B204604EB87029161DB
:10047000E1688847012F064618D1E069002820DA94
:1004800025F020051DE0D8F8180000EB800006EBF1
:1004900040003038C8F818002046E1688847064612
:1004A00001F0E5FB0028EED1012F0AD02E2E08D155
:1004B0002046E16888477F1C0646022F45F020054C
:1004C000C4DBA069002803DA404245F00105A061C1
:1004D000E80701D025F01005B6B1A6F141001928B2
:1004E00002D8203645F400654A463146204625604C
:1004F0004D46FFF795FE58B1012806D0ED1D25F0B9
:10050000070000F1080989E704E005F1040985E71F
:1005100030468AE7206ABDE8F087032A40F230803F
:1005200010F0030C00F0158011F8013BBCF1020F34
:10053000624498BF11F801CB00F8013B38BF11F8B5
:10054000013BA2F1040298BF00F801CB38BF00F8CC
:10055000013B11F0030300F0AC82083AC0F00880C0
:1005600051F8043B083A51F804CBA0E80810F5E72D
:10057000121D5CBF51F8043B40F8043BAFF3008010
:10058000D20724BF11F8013B11F801CB48BF11F885
:10059000012B24BF00F8013B00F801CB48BF00F855
:1005A000012B70477047704770472DE9F0470D46A3
:1005B00099469246044600F124080168880604D54D
:1005C000E06921F01001216000E00120A84201DD76
:1005D000471B00E00027A1697A1902EB0900081AFD
:1005E000A0612078C00602D42046AFF30080002628
:1005F00008E0D4E901211AF806009047206A401C5F
:10060000761C20624E45F4DB2078C0060AD52046D1
:10061000AFF3008006E0D4E9012130209047206A42
:10062000401C2062381EA7F10107F4DC07E0D4E982
:10063000012118F805009047206A401C2062281EFE
:10064000A5F10105F3DC2046AFF300802078000619
:1006500002D50220BDE8F0870120FBE770472DE9B5
:10066000FF4F0C461E464FF0FF378BB0D2E900011A
:10067000DDF860800A908A46C1F30A5505B93D4607
:10068000002108464FF00000BAF1000F00F44000CE
:1006900005DA00EB80004FF4400101EA50004FEA18
:1006A0009059B9F1010F00DDB9460A9850EA4A00A5
:1006B0000ED044F61050A5F2FF3545432F14B8F183
:1006C000000F1ED07542291E1EDDC9F100021CE07C
:1006D000B8F1010F4FF0000001D0302103E0F243E8
:1006E00005E02154401CB042FBDB304600220021D3
:1006F00021540B99C1F80880C1E900200FB0BDE872
:10070000F08FBD1B6D1CDEE74A4600DA694206A881
:1007100000F08CFA06AB93E8070003AB83E8070010
:1007200050460A9900F069FB8DE80700A0F50050DB
:100730001F3800900398002D09DD42F21F014A4640
:10074000084403A90390684600F0C8FD08E0A0F53E
:1007500000504A461F3803A90390684600F0D2FDB6
:100760008DE807000004000C03D04FF0FF30410873
:1007700000E01046B8F1000F03D0002200921546A9
:100780001EE0751E05D400F0CBF9303262556D1EA7
:10079000F9D5B3460122084302D000227F1C04E0B1
:1007A0002078302801D100227F1E002A099786D0A8
:1007B0001DE0112D07DA00F0B3F9303262556D1CDF
:1007C00050EA0102F5D1084302D00098C8B10EE00A
:1007D0000021681E05E0235C625C63542254401EC5
:1007E000491C8142F7DBAB46A81B401E0990002044
:1007F00004F80B000B98099AC0F80880C0E9002B98
:100800007CE711264FF0000859E72DE9F04F8846A4
:100810000446D21D22F0070191B0D1E90001CDE9D3
:100820000A0101F0FFF902460B98C00F01D02D20FC
:1008300007E02068810701D52B2002E0202101EA92
:10084000C000032A099001D0072A05DB0346414670
:10085000204600F0ABF90BE12078800601D5E06975
:1008600000E00620B8F1650F814606D0B8F1660FAA
:1008700018D0B8F1670F70D131E00020B9F1110F35
:10088000009001DB112301E009F101030AAA01A98B
:100890000CA8FFF7E4FEDDE90C70002609F1010564
:1008A000834647E001204B4600904FF000470AAADC
:1008B00001A90CA8FFF7D3FEDDE90DB00C995D4648
:1008C000002610B909F101000D18B9EB050003D499
:1008D000C0F1FF3609F10105A5EB09002BE0B9F1E4
:1008E000010F01DA4FF001090020B9F1110F00905A
:1008F000484601DD112300E003460AAA01A90CA81D
:10090000FFF7ADFEDDE90C704D46002683462078EA
:1009100000070AD4AB4500DA5D4601A8012D04DDCD
:10092000411911F8011C302907D04F4502DA17F19F
:10093000040F04DA012082460FE06D1EEEE7002F5F
:1009400002DCED1B3E4403E0781CA84200DD7D1C68
:10095000B81B00F1010A4FF000472078000703D4CC
:10096000AA4501DB4FF0FF3A0021B7F1004F0DF12E
:1009700043088DF8431024D002202B23002F01DAE6
:100980007F422D230A21021EA0F1010000DC5FB18D
:1009900097FBF1FC97FBF1F201FB1C7C17460CF175
:1009A000300C08F801CDEEE7A8F1010003702188B2
:1009B000090501D5452100E06521A0F1010800F8F5
:1009C000011C09980FA9A1EB0807FF1D00B1012028
:1009D000411901EBEA70A1693844081A401EA06170
:1009E0002078C00602D42046AFF30080099828B1D1
:1009F000D4E901219047206A401C20622078C0067B
:100A000022D52046AFF300801EE0002E04DBB34564
:100A100002DD01A8805D00E03020D4E9012190478B
:100A2000206A401C2062761CAAF101005FEA000ADD
:100A30000AD100F071F8C0680168405CD4E9012176
:100A40009047206A401C2062281EA5F10105DCDCCD
:100A500007E0D4E9012118F8010B9047206A401CF7
:100A60002062381EA7F10107F3DC2046AFF30080B7
:100A7000032011B043E6000001694A1C02610878B6
:100A8000704700B58FB0CDE90131002105910549CE
:100A90007944CDE9031011466846FFF7B7FC0FB063
:100AA00000BD0000E5FFFFFF0A6802F8010B0A60C5
:100AB000704710B5203AC0F00B80B1E81850203ACA
:100AC000A0E81850B1E81850A0E81850BFF4F5AFEE
:100AD0005FEA027C24BFB1E81850A0E8185044BF78
:100AE00018C918C0BDE810405FEA827C24BF51F8E5
:100AF000043B40F8043B08BF7047D20728BF31F8D9
:100B0000023B48BF11F8012B28BF20F8023B48BF29
:100B100000F8012B7047000000487047683D002036
:100B200030B5B0F10A024FEA900E71F100034EEABF
:100B3000817EB0EB0E0061EB91014FEA101E4EEA90
:100B4000017E10EB0E0041EB11114FEA102E4EEA20
:100B5000016E10EB0E0041EB11214FEA104E4EEAF0
:100B6000014E10EB0E0041EB1141401841F1000124
:100B70004FEAD00040EA41704FEAD10110EB800506
:100B80004FEA810444EA907444EB01046D1944EB8C
:100B90000404521BA3414FF0000348BF0A3200D5A2
:100BA00030BD401C41F1000130BD00002DE9F04195
:100BB0001F46044603260168072A01F4006004DB8F
:100BC00008B116A505E016A503E008B115A500E0DB
:100BD00015A521F010002060A069C01EA0610FB112
:100BE000401EA0612046AFF300804FB1D4E901213F
:100BF00038469047206A401C2062C01C206206E0F4
:100C0000206AFAE7D4E9012115F8010B9047761E16
:100C1000F8D22046AFF30080BDE8F0814E414E008F
:100C20006E616E00494E4600696E66002DE9F04720
:100C3000814616468AB0334878440DC88DE80D00C9
:100C400030487844801C03AC0DC884E80D0041F6A0
:100C50009B300844372190FBF1F290FBF1F5A5F1B0
:100C6000800501FB12041B3C02D56442012000E018
:100C70000020DFF890A080460027FA44AAF1BE0ABF
:100C80000DE0E00709D03246684607EB47010AEB62
:100C9000810100F037FB8DE8070064107F1C002CF9
:100CA000EFD1184F7F44AC3F18E0E80714D007EBB2
:100CB00004100DF1180A90E80E008AE80E00C068D2
:100CC000F04201D198190890324606A903A800F015
:100CD00019FB03AB83E807006D10641C002DE4D101
:100CE00032466946B8F1000F03A802D000F0F6FAC8
:100CF00001E000F007FBC9E90001C9F808200AB0CB
:100D0000BDE8F087E821000000487047483D00201A
:100D10007546FFF7F9FFAE4605006946534620F0D9
:100D20000700854618B020B5FFF70EFBBDE8204050
:100D30004FF000064FF000074FF000084FF0000B97
:100D400021F00701AC46ACE8C009ACE8C009ACE84A
:100D5000C009ACE8C0098D46704710B50446AFF332
:100D600000802046BDE81040FFF779BA4FF0013C03
:100D700050F8042B51F8043B9A4221D1A2EB0C030A
:100D8000934313EACC1317D150F8042B51F8043BCA
:100D90009A4215D1A2EB0C03934313EACC130BD167
:100DA00050F8042B51F8043B9A4209D1A2EB0C03F2
:100DB000934313EACC13DBD04FF00000704700BF21
:100DC000D01A01BAB1FA81F101F0180122FA01F04A
:100DD000CB40C1F12001DBB2C0B2C01A2CFA01F342
:100DE000D11A914311EAC311E6D170470149182085
:100DF000ABBEFEE72600020070475FEA400C08BF6A
:100E000091F0000F4FEA8C234FEAC12243EA51517F
:100E10004FEA1C5018BF00F5F0404FEA300018BFF1
:100E200041F000415FEA6C5C00F02980BCF1FF3FBB
:100E300008BF40F080407047130C06BF12044FF00B
:100E4000100C4FF0000C130E04BF12020CF1080C32
:100E5000130F04BF12010CF1040C930F04BF920096
:100E60000CF1020CD30F04BF52000CF1010C11461F
:100E70004FF00002A0F11F00A0EB0C00704711F032
:100E8000004F08BF704731F000413FF4D5AF0B0C65
:100E900006BF09044FF0100C4FF0000C0B0E04BFFE
:100EA00009020CF1080C0B0F04BF09010CF1040C32
:100EB0008B0F04BF89000CF1020CCB0F04BF49005B
:100EC0000CF1010CCCF12003A0EB0C0022FA03F38F
:100ED00002FA0CF241EA030100F10100704720F030
:100EE0007F4C80EA030023F07F47ACEB070303F558
:100EF0007C5300F0004003F1FF032DE980494FEAE5
:100F0000154B09B44FEA144325EA0B4E24EA034873
:100F10000FF2042606EB132749083E785FEA3202F7
:100F200003FB0667C7F5000707FB06F64FEA5437D1
:100F30004FEAD64606F1020607FB066CCCF1005CD0
:100F40004FEA1C472CEA074C07FB06F40CFB06F59E
:100F500004EB15464FEA961634BF00204FF00040D0
:100F60004FEAD13706FB07FC4FEA1C4C0CFB0BF792
:100F7000D21B03FB0CF761EB07010CFB0EF7B0EB88
:100F8000074072EB17420CFB08F734BFA2EB074295
:100F9000B2EB074261EB17414FEA0C444FEA91076D
:100FA00006FB07FC4FEA1C4C0CFB0BF7B0EBC740F1
:100FB00072EB573203FB0CF734BFA2EBC742B2EB24
:100FC000C74261EB57310CFB0EF7B0EBC70072EB79
:100FD00057720CFB08F734BFA2EBC702B2EBC70293
:100FE00061EB5771039F4FEA816141EA921104EB73
:100FF000CC044FEAD1374FEA826206FB07FC42EA93
:1010000090124FEA80604FEA1C4C0CFB0BF7D21B8E
:1010100003FB0CF761EB07010CFB0EF7B0EB07408D
:1010200072EB17420CFB08F734BFA2EB0742B2EB9E
:10103000074261EB17414FEA8C554FEA910704EBE9
:101040009C2406FB07FC4FEA1C4C0CFB0BF7B0EB97
:10105000C74072EB573203FB0CF734BFA2EBC74219
:10106000B2EBC74261EB57310CFB0EF7B0EBC70098
:1010700072EB57720CFB08F734BFA2EBC702B2EB5E
:10108000C70261EB577115EB4C254FEA816141EACC
:1010900092114FEA82624FEAD13742EA901206FB80
:1010A00007FC44F100044FEA80604FEA1C4C0CFB43
:1010B0000BF7D21B03FB0CF761EB07010CFB0EF7E0
:1010C000B0EB074072EB17420CFB08F734BFA2EB02
:1010D0000742B2EB074261EB174115EB1C154FEAD3
:1010E000813141EA92414FEA823242EA90424FEA2C
:1010F00080304FEA0C7644F1000448EA03434EEA9C
:101100000B484FF0000EB2EB080C71EB030724BF45
:10111000624639464EEB0E0E4FF0000B001852415E
:1011200049414BEB0B0BB2EB080C71EB03077BF166
:10113000000B24BF624639464EEB0E0E4FF0000BFB
:101140000018524149414BEB0B0BB2EB080C71EB11
:1011500003077BF1000B24BF624639464EEB0E0EAF
:1011600051EA020718BF46F0010616EB0E7655F15C
:10117000000254F1000103D5BDE88901BDE80088F3
:10118000BDE88901BDE80048B619524141EB0101B3
:10119000A3F10103704780807F7E7D7C7B7A797824
:1011A000777676757473727171706F6E6E6D6C6C2C
:1011B0006B6A6A69686867666665646463636261CE
:1011C0006160605F5F5E5E5D5D5C5C5B5B5A5A594F
:1011D00059585857575656555555545453535252BB
:1011E0005251515050504F4F4F4E4E4D4D4D4C4C13
:1011F0004C4B4B4B4A4A4A4949494848484747475C
:101200004746464645454544444444434343434298
:10121000424242414141002B26D4770021D01CB5E7
:101220004FEA370703B44FF010004FF010014FF0B2
:1012300000000FBCBDE810400BF1010BBBF1010F2A
:1012400008BF5FEA170722BF12F1010211F1010185
:101250004FF0004143F1000300F0004043EA00007A
:101260007047F9D35708DAE746EA064613F1400F0C
:101270004FEA16461FDD13F1200FDFBF16430A4663
:10128000002120335B42C8D0C3F1200746EA06465E
:1012900002FA07F74FEA164646EA0706C3F12007A7
:1012A00022FA03F201FA07F721FA03F14FF00003E3
:1012B00042EA0702B1E746EA020646EA06464FEA74
:1012C000164646EA0106BCBF46EA0646360C4FF013
:1012D00000034FF000024FF000019EE72DE9C048E7
:1012E000934630B491E8380007C831EA400C48BF53
:1012F00034EA430C03D5FFF7F2FDFFF78CFFF0BC97
:10130000BDE800882DE9C048934630B491E8380024
:1013100007C810F0804F08BF13F0804F03D100F0D2
:1013200005F8FFF778FFF0BCBDE8008820F07F47A4
:1013300080EA030023F07F4C07EB0C03A3F57C53FA
:1013400000F00040A3F1FE0392F0000F00F0B38024
:1013500095F0000F00F077802DE901494FEA114028
:101360004FEA144621EA004800FB06FC24EA06473F
:1013700008FB06F607FB08F800FB07F718EB064822
:101380004CEB164C4FEA124B18EB07484FEA154648
:101390004CEB174022EA0B4E0BFB06FC25EA0647F6
:1013A0000EFB06F607FB0EFE0BFB07F71EEB064EC9
:1013B0004CEB164C4FF000061EEB074E4CEB174B58
:1013C00018EB0B0840F1000018EB0E0B58EB00086F
:1013D00040F100008F1A4FF000013CBFC943661B6B
:1013E00014BFB5EB040C00213CBFC943F61B4FEA08
:1013F00017444EEA8E0E27EA04454FEA1C4704FBC9
:1014000007622CEA074C05FB07F70CFB05F604FB0B
:101410000CFC16EB074642EB174216EB0C4642EB70
:101420001C421BEB060658EB0202414146EA9E06AF
:1014300001D5BDE80189B619524141EB0101A3F183
:101440000103BDE801894FEA14454FEA114724EA38
:10145000054621EA074C05FB07F406FB07F70CFBE2
:1014600006F105FB0CFC11EB074144EB17444FEA76
:10147000124711EB0C4144EB1C4422EA074C05FBDC
:1014800007F206FB07F70CFB06F605FB0CFC16EB58
:10149000074642EB174216EB0C4642EB1C456A1816
:1014A00054F1000148BF7047B619524141EB0101A8
:1014B000A3F10103704795F0000F37D04FEA1142B6
:1014C0004FEA144721EA024624EA074C02FB07F1DF
:1014D00006FB07F70CFB06F402FB0CFC14EB0744BD
:1014E00041EB17414FEA154714EB0C4441EB1C410B
:1014F00025EA074C02FB07F506FB07F70CFB06F68F
:1015000002FB0CFC16EB074645EB174516EB0C46A9
:1015100045EB1C42121951F1000148BF7047B61942
:10152000524141EB0101A3F1010370474FEA144519
:101530004FEA114724EA054621EA074C05FB07F16B
:1015400006FB07F70CFB06F24FF0000605FB0CFC50
:1015500012EB074241EB174112EB0C4251EB1C41DD
:1015600048BF7047921841EB0101A3F10103704796
:101570001748016841F4807101601548143801680A
:1015800041F0010101601348D0F8041341F48031A7
:10159000C0F8041310490A6842F003020A60CA68DE
:1015A00022F00302CA60816841F001018160816814
:1015B00021F002018160816821F040518160016960
:1015C00041F038010161416B21F01F014163704717
:1015D0004438024000200140000002401D480168DC
:1015E00041F4806101601B481438016841F020011A
:1015F00001601948D0F8041341F48031C0F8041395
:1016000016490A6842F440520A6014490C310A68CB
:1016100022F440520A60D0F8081241F00101C0F8EB
:101620000812D0F8081221F00201C0F80812D0F810
:10163000081221F04051C0F80812D0F8101241F4FD
:10164000E041C0F81012D0F8341241F00401C0F8A3
:101650003412704744380240002001400014024018
:1016600000B5FFF785FF5DF804EBFFF7B7BF00009B
:101670000548816841F08041816001688907FCD597
:10168000C06C80B270470000002001400748D0F8CD
:10169000081241F08041C0F8081200BFD0F80012D3
:1016A0008907FBD5D0F84C0280B27047002001407A
:1016B0000C48016841F0005101600A481038016887
:1016C00041F0010101600848016841F44071016086
:1016D000C16821F44071C1600448016841F0010112
:1016E0000160704740380240000002400074004032
:1016F000FFF7DEBFB0F5805F01D201490860704797
:10170000087400401848016841F040010160016818
:1017100041F0010101601548016841F080610160FC
:10172000011D0A680A60091D0A6842F080620A60A9
:101730000A1D136823F040631360036843F080536D
:101740000360086840F080500860106820F0405046
:1017500010600748016821F003010160C16821F0B1
:101760000301C16070470000303802400018024099
:1017700000000240F0B5AD4A106840F00100106072
:10178000AA481030016841F001010160A8480168D1
:1017900021F440610160016841F400610160416829
:1017A00021F020014160816841F440618160C1689D
:1017B00021F44061C160016A41F48011016241037A
:1017C0004AF6C7738B624FF47A74CC62C8254D63B6
:1017D0008D6945F060058D610D6A45F001050D626A
:1017E0000D6A25F002050D620D6825F010050D60EB
:1017F0000D6845F001050D60116841F002011160AE
:10180000116841F010011160884914310A6842F0F2
:1018100001020A60016821F440410160016841F45D
:1018200000410160416821F080014160816841F41C
:1018300040418160C16821F44041C160016A41F0CA
:10184000805101627B48016821F003010160016859
:1018500041F002010160011D0A6822F001020A60E4
:101860000A1D156845F003051560151D2E6826F044
:1018700003062E606F4E2036376847F00107376049
:10188000076827F00C070760076847F0080707603C
:10189000086820F002000860106840F00C0010603A
:1018A000286820F00C002860306840F0100030609C
:1018B0006148016821F440210160016841F4002180
:1018C0000160416821F400714160816841F4402168
:1018D0008160C16821F44021C160416A41F010017A
:1018E0004162016821F440010160016841F4000196
:1018F0000160416821F400614160816841F4400168
:101900008160C16821F44001C160416A41F48051A5
:101910004162016821F040610160016841F00061AD
:101920000160416821F400514160816841F04061EB
:101930008160C16821F04061C160416A41F4801159
:1019400041623E48016841F020010160016841F0B8
:10195000800101608362C462611041638163C1637D
:10196000816921F010018161816941F0200181616B
:10197000816941F040018161816921F48051816177
:10198000816941F400518161816941F48041816143
:10199000C16921F01001C161C16941F02001C1613B
:1019A000C16941F04001C161016A41F00101016278
:1019B000016A41F004010162016A41F01001016213
:1019C000016A41F040010162016A41F480710162E3
:1019D000016A41F480610162416C41F0010141649E
:1019E000416C41F002014164416C41F004014164E9
:1019F000416C41F008014164416C41F010014164C7
:101A0000416C41F020014164416C41F0400141646E
:101A1000416C41F080014164016841F001010160C5
:101A2000416C41F400414164F0BD00003038024097
:101A3000000002400004024000100240000001408B
:101A40002B4A10B5106840F4803010601068800395
:101A5000FCD5284940F20F10086025490831086874
:101A60000860086840F480500860086840F400404E
:101A70000860081F036823F03F030360036847F60C
:101A8000C074A3430360036823F440330360036816
:101A900023F480030360036843F480030360036856
:101AA00043F008030360036843F480730360036832
:101AB00043F480630360036843F4006303600368D6
:101AC00043F400530360106840F0807010601068A9
:101AD0008001FCD5086800F003000860086840F049
:101AE000020008600868C0F381000228FAD110BD26
:101AF00000380240003C024010B5502080F31188AD
:101B0000BFF34F8FBFF36F8F00F06CFF18B1044924
:101B10004FF080500860002080F3118810BD000055
:101B200004ED00E00548016841F4700101600349DB
:101B30004FF00060803908607047000088ED00E0D9
:101B400000F00EB805480168890606D5C168890607
:101B500003D5016821F020010160704700100140A9
:101B60002348016841F010010160214814380168E0
:101B700041F0010101601F48016841F4002101604A
:101B8000416821F400714160816841F480218160E5
:101B9000C16821F44021C160016841F40011016075
:101BA000416821F480614160816841F48011816065
:101BB000C16821F44011C160416A41F4EE614162A3
:101BC0000D4842F296418160C16841F40051C16004
:101BD000C16841F00801C160C16841F00401C16001
:101BE000C16841F02001C160252000F033B8000039
:101BF00044380240000002400010014002490A68D7
:101C00005206FCD5486070470010014010B50446EC
:101C1000002303E05B1CDBB2FFF7F0FFE05C002871
:101C2000F8D110BD03B401984100009850EAC120DA
:101C300018BF04204A0D18BF40F0010040F2FF72A7
:101C4000B2EB515F08BF40F00200012808BF052039
:101C500002B07047002809DB00F01F02012191400B
:101C60004009800000F1E020C0F8001170473038D2
:101C70000A2801D201207047002070471CB5FFF7E9
:101C8000DFFEFFF73FFDFFF75BFFFFF773FDFFF799
:101C9000E7FCFFF72DFD002501242B4680220CA137
:101CA0000C48CDE9004500F063FE002380220AA124
:101CB0000A48CDE9004500F05BFE00220221052024
:101CC00000F06AFC0649086000F038FBFEE70000FF
:101CD000414443006922000854465400112400087E
:101CE000040000202DE9F041184C0F460546E66837
:101CF0002068001D00F00AFA38B9206890F82C100E
:101D000001208840216981432161681C07D137B1D6
:101D10002168BDE8F0410E48091D00F042BA206874
:101D20003544B5424560216805D2A06BBDE8F0415D
:101D3000091D00F01EBA606B091D00F01AFAA06AB6
:101D4000854200D2A562BDE8F081000014000020A9
:101D5000340100202DE9F041054600F02FFA2E4C09
:101D6000A068401CA06020682C4F10B1606940B38F
:101D70002DE02560A068012829D1002606EB860009
:101D800007EB800000F0E7F9761C072EF6D3234816
:101D90008C3000F0E0F92148A03000F0DCF91F4859
:101DA000B43000F0D8F91D48C83000F0D4F91B4811
:101DB000DC3000F0D0F919488C3060631430A06337
:101DC00005E02068E96AC06A884200D82560606A38
:101DD000401C6062E96A012022698840104320614A
:101DE00001EB810007EB8000291D00F0DAF900F01B
:101DF00005FA606900280CD02068E96AC06A884248
:101E000007D207494FF080500860BFF34F8FBFF3F0
:101E10006F8FBDE8F0810000140000205800002002
:101E200004ED00E030B4026C0B46002A0BD0C16810
:101E30001144C1608468A14201D30168C16030BC13
:101E40001846FEF76ABB30BC70472DE9F041856B40
:101E5000174604460026026C82B1C7B1E068FEF75F
:101E60005CFBE168206C091AE1602268914202D2B1
:101E7000A168081AE060022F16D017E02068A8B900
:101E8000A06800F015FE06460020A0600EE0606825
:101E9000FEF743FB216C606808446060A1688842DB
:101EA00004D32068606001E005B16D1E6D1CA56360
:101EB0003046BDE8F08110B50446006B00F0B2F981
:101EC0002046BDE8104000F0ADB90000144E154C9E
:101ED000A6F1C8074FF08058DFF84C9012E000BF21
:101EE00000F06CF9F068C568281D00F00FF9A068D3
:101EF000401EA0606068401E606000F07FF92846C8
:101F0000FFF7D9FF60680028EAD138680128F9D9BD
:101F1000C9F80080BFF34F8FBFF36F8FF2E7000067
:101F2000200100201400002004ED00E02DE9F0471E
:101F30009A46DDE9098481466FF00303206B03EBC9
:101F400082021044089E20F00707780707D050202F
:101F500080F31188BFF34F8FBFF36F8FFEE700252B
:101F600061B1002023180A5C83F834200A5C12B1A6
:101F7000401C1028F6D384F8435001E084F8345014
:101F8000072E00D30626E662C4E91165201D00F085
:101F9000EDF804F1180000F0E9F82461C6F107003B
:101FA0006462A061E56484F8505052464946384660
:101FB00000F096F82060B8F1000F01D0C8F800409A
:101FC000BDE8F08710B5044600F0F8F8A06B28B122
:101FD0005FF0000400F012F9204610BD0124F9E77B
:101FE0000648416B096829B1416BC968C9684968ED
:101FF000816270474FF0FF31FAE7000014000020C3
:1020000008484068401C4FF0500080F3118804D00D
:10201000BFF34F8FBFF36F8FFEE7BFF34F8FBFF359
:102020006F8FFEE7080000202DE9F041044600F024
:10203000C5F894F9455004F1240609E0606A48B1F6
:10204000304600F081FD08B100F05AF96D1E6DB206
:10205000002DF3DC4FF0FF3684F8456000F0CEF839
:1020600000F0ACF894F9445004F1100709E020693D
:1020700048B1384600F068FD08B100F041F96D1E26
:102080006DB2002DF3DC84F84460BDE8F04100F04F
:10209000B5B8000070B504460025400704D004F030
:1020A0000700C0F10800044400F07CF90A494868C0
:1020B00018B90A4820F0070048600A6843F6F83368
:1020C0001019984204D2904202D94B6808609D18BA
:1020D00000F074FD284670BD500000205001002023
:1020E00010B5031F4FF080741C601B1F21F001010D
:1020F0001960191F044B0B6014390A60091F6FF037
:10210000020244380A6010BD01200008D0E9013203
:1021100001699A60D0E901235A604A68824201D17C
:1021200082684A60002202610868401E08600868F0
:10213000704710B5040006D000F040F8A46B00F022
:102140005DF8204610BD502080F31188BFF34F8FFB
:10215000BFF36F8FFEE700F108014FF0FF32C0E9D7
:102160000112C1600161002101607047002101611D
:10217000704730B50B685A1C02D000F1080202E02B
:10218000026904E02246546825689D42FAD95368E2
:102190004B6099608A60516008610168491C016068
:1021A00030BD42684A6093688B6093685960916063
:1021B00008610168491C016070470000502080F3ED
:1021C0001188BFF34F8FBFF36F8F0A494868401CD7
:1021D000486001280CD10848006810F0FF0F07D0B4
:1021E000502080F31188BFF34F8FBFF36F8FFEE74E
:1021F000704700000800002004ED00E0084948682E
:1022000028B1401E486001D180F3118870475020EA
:1022100080F31188BFF34F8FBFF36F8FFEE700008D
:1022200008000020002807D0502080F31188BFF359
:102230004F8FBFF36F8FFEE7704700004FF0E02035
:1022400000210161816107494FF47A72096801EB4D
:1022500041014900B1FBF2F1491E416107210161D1
:10226000704700000000002008B50C4D0C4C00BF6A
:10227000FFF7FEF9FFF73EFAFFF708FAADF80000A6
:1022800000231A466946286800F0ECF9206880F4BB
:1022900000502060642000F005F8E9E70400002009
:1022A0001418024010B5020014D00F48006B38B16A
:1022B000502080F31188BFF34F8FBFF36F8FFEE77D
:1022C00000F070F800211046FFF70CFD00F076FCDE
:1022D000002807D105494FF080500860BFF34F8FA9
:1022E000BFF36F8F10BD00001400002004ED00E06C
:1022F00002490A6A0260C968416070471400002000
:1023000001490120C86170471400002010B50C4637
:1023100050B1094909681831FFF72BFF2046BDE885
:1023200010400121FFF7DEBC502080F31188BFF37D
:102330004F8FBFF36F8FFEE7140000201CB51548C8
:102340000024CDE900402346802213A1144800F068
:102350000FFB012809D0401C1AD1502080F31188AE
:10236000BFF34F8FBFF36F8FFEE7502080F31188CC
:10237000BFF34F8FBFF36F8F06484FF0FF312C38FC
:10238000816201214161C460BDE81C4000F08AB84F
:102390001CBD00004000002049444C4500000000E6
:1023A000CD1E00080248016B491C01637047000004
:1023B000140000201448016B11B10121C161704764
:1023C0000021C1610169B1FA81F1C1F11F0101EB85
:1023D00081020E4951F822306BB101EB820101F10B
:1023E00008034A6852684A609A4201D152684A60BA
:1023F000D16801607047502080F31188BFF34F8F80
:10240000BFF36F8FFEE7000014000020580000208B
:102410002DED028BDFED178A174C8CB02068FFF78B
:1024200088FE10B300220AA9206800F0CBF9BDF89D
:10243000282012A100EE102A6846B8EE400A20EECD
:10244000288AFDF793FF6846FFF7E0FB18EE100AB5
:1024500000F032FC41EC100B0DA153EC102B05A841
:10246000FDF784FF05A8FFF7D1FB6420FFF71AFFF3
:10247000D4E7000068E89F3A04000020416463202C
:1024800076616C75652069732025752C000000004D
:1024900020566F6C7461676520697320252E336642
:1024A0000D0A00001CB537480168374A914207D130
:1024B000502080F31188BFF34F8FBFF36F8FFEE77B
:1024C00000683149491E884207D1502080F31188A5
:1024D000BFF34F8FBFF36F8FFEE72C490878019051
:1024E000FF20087008788DF800009DF800009DF826
:1024F000002000F0F000904207D0502080F31188B7
:10250000BFF34F8FBFF36F8FFEE79DF80000204CA5
:1025100000F0500020700720A06005E09DF800202A
:1025200052008DF80020401E9DF800201206F5D4C0
:10253000A060032807D0502080F31188BFF34F8F8D
:10254000BFF36F8FFEE74FF44070A06001980870F2
:102550000C482030016841F470010160016841F0CD
:1025600070410160FFF76AFE00206060FDF7A2FE87
:102570000848016841F040410160FDF787FE0020F6
:102580001CBD000000ED00E071C20F4100E400E05E
:102590000800002034EF00E070B50E46050012D0B0
:1025A00005FB06F04830FFF775FD040009D004F183
:1025B000480120467EB10160C0E90F56012100F0BC
:1025C0000DF8204670BD502080F31188BFF34F8F67
:1025D000BFF36F8FFEE70060EEE7000070B50D46B9
:1025E000040025D0FFF7EAFDD4E90F20216802FBA3
:1025F0000011A1600021A163216861600A46D4E94D
:102600000F01401E00FB0121E16021464FF0FF3029
:1026100001F8440F487004F110008DB1FFF79BFDE5
:1026200004F12400FFF797FDFFF7E8FD012070BDDE
:10263000502080F31188BFF34F8FBFF36F8FFEE7F9
:1026400021690029F0D000F07FFA0028ECD004497D
:102650004FF080500860BFF34F8FBFF36F8FE3E7F9
:1026600004ED00E02DE9FF4782B01D468A464FF099
:102670000008040003D0BAF1000F08D011E0502088
:1026800080F31188BFF34F8FBFF36F8FFEE7206C8D
:1026900038B1502080F31188BFF34F8FBFF36F8F95
:1026A000FEE7022D0AD1E06B012807D0502080F30D
:1026B0001188BFF34F8FBFF36F8FFEE700F084F9EF
:1026C0003F4F4FF000094FF0805648B9049838B199
:1026D000502080F31188BFF34F8FBFF36F8FFEE759
:1026E000FFF76CFDA06BE16B884207D3022D05D08C
:1026F0000498D0B1B8F1000F1AD01EE02A46514616
:102700002046FFF7A2FB616A19B104F1240000F032
:102710001BFA20B13E60BFF34F8FBFF36F8FFFF7FF
:102720006DFD012006B0BDE8F087FFF767FD22E0F0
:102730006846FFF7DDFD4FF00108FFF75FFDFFF78B
:1027400031FEFFF73BFD94F94400401C01D184F8B1
:10275000449094F94500401C01D184F84590FFF75E
:102760004DFD04A9684600F0C9F830B12046FFF7D6
:102770005BFC00F023FA0020D4E7FFF71FFDA06BFD
:10278000E16B884213D1FFF739FD04F11000049981
:10279000FFF7BCFD2046FFF747FC00F00FFA0028CA
:1027A0009ED13E60BFF34F8FBFF36F8F98E7FFF767
:1027B00025FD2046FFF738FC00F000FA90E7000006
:1027C00004ED00E02DE9F747002683B08A460400B7
:1027D00003D0BAF1000F08D011E0502080F3118827
:1027E000BFF34F8FBFF36F8FFEE7206C38B15020DF
:1027F00080F31188BFF34F8FBFF36F8FFEE700F0B8
:10280000E3F8DFF8F4804FF000094FF0805748B943
:10281000059838B1502080F31188BFF34F8FBFF374
:102820006F8FFEE7FFF7CAFCA56BC5B15146204686
:10283000FFF7F8FA6D1EA563206950B104F110008E
:1028400000F082F928B1C8F80070BFF34F8FBFF3D2
:102850006F8FFFF7D3FC012006B0BDE8F087059825
:1028600008B11EB106E0FFF7C9FC27E06846FFF794
:102870003FFD0126FFF7C2FCFFF794FDFFF79EFC2A
:1028800094F94400401C01D184F8449094F9450027
:10289000401C01D184F84590FFF7B0FC05A96846BB
:1028A00000F02CF8002820460AD0FFF7BDFB00F00E
:1028B00085F92046FFF786FB0028B3D00020CBE740
:1028C000FFF780FB90B104F124000599FFF71EFD8E
:1028D0002046FFF7A9FB00F071F90028A2D1C8F843
:1028E0000070BFF34F8FBFF36F8F9BE72046FFF75A
:1028F0009BFB00F063F995E704ED00E02DE9F04162
:102900000C46050011D0C4B1FFF758FC174BDA682C
:102910006E682068911B471C17D02F681B6A9F4266
:1029200019D0964217D8012410E0502080F3118866
:10293000BFF34F8FBFF36F8FFEE7502080F31188F6
:10294000BFF34F8FBFF36F8FFEE70024FFF756FCF6
:102950002046BDE8F081884205D9401A206028460B
:10296000FFF7C6FCF1E700202060DCE71400002040
:102970002DE9FF5F8346DDE90E87994616468A46B4
:102980009000FFF787FB05001AD05420FFF782FB69
:10299000040012D025630021CDE90241CDE9008772
:1029A0004B46324651465846FFF7C0FA2046FFF7DD
:1029B000D1F9012004B0BDE8F09F2846FFF732FCB2
:1029C0004FF0FF30F6E700000548416919B1006B90
:1029D00018B10020704701207047022070470000A6
:1029E000140000202DE9F0412F4C0026206B28B167
:1029F000A069401CA0613046BDE8F081E5686D1C0F
:102A0000E56013D1606B006838B1502080F3118805
:102A1000BFF34F8FBFF36F8FFEE7606BA16B6163F6
:102A2000A063206A401C2062FFF7DAFAA06ADFF890
:102A30007C80854209D3606B0068A0B1606BC06880
:102A4000C7687868854211D2A0622068C06A00EB2E
:102A5000800158F82100012800D90126E0690028EA
:102A6000C9D00126C7E74FF0FF30EDE7381DFFF76B
:102A70004DFBB86A18B107F11800FFF747FBF96A78
:102A80000120226988401043206101EB810108EB9D
:102A90008100391DFFF785FBF86A2168C96A884201
:102AA000C9D30126C7E70000140000205800002009
:102AB00070B504004FF0000140D0214D28688442D9
:102AC00007D0502080F31188BFF34F8FBFF36F8F73
:102AD000FEE7A06C38B1401EA064636CE26A9A42C3
:102AE0002CD040B12AE0502080F31188BFF34F8FE3
:102AF000BFF36F8FFEE7201DFFF708FB114A01218E
:102B000050B9E06A00EB800352F8233023B92B69F7
:102B100001FA00F083432B61606CE062C0F10700B2
:102B2000A061E06A2B6981401943296100EB8000B4
:102B300002EB8000211DFFF734FB0121084670BD28
:102B400014000020580000202DE9F041C068C4683E
:102B5000ACB104F118000746FFF7D8FA154D286B01
:102B60000126A0B139461448FFF71BFBE06A29682B
:102B7000C96A88421CD90120EE61BDE8F08150206D
:102B800080F31188BFF34F8FBFF36F8FFEE7201DD7
:102B9000FFF7BCFAE16A2A6906FA01F010432861DE
:102BA00001EB81000449B43901EB8000211DDBE712
:102BB0000020E2E7140000200C0100202DE9F0477E
:102BC0002C4D00242746286B38B1FFF7F7FA286B05
:102BD000401E2863286B40B146E0502080F31188E6
:102BE000BFF34F8FBFF36F8FFEE7A968224E01201E
:102BF000D1B3A6F1B40980463068E8B1F068C46882
:102C000004F11800FFF782FA201DFFF77FFAE06A4F
:102C10002A6908FA00F11143296100EB800109EBF0
:102C20008100211DFFF7BDFAE06A2968C96A884260
:102C3000E2D3C5F81C80DFE70CB1FFF7D1F9AC692E
:102C400044B14646FFF7CEFE00B1EE61641EF9D1F5
:102C50000020A861E86938B10849012738070860F1
:102C6000BFF34F8FBFF36F8FFFF7C8FA3846BDE849
:102C7000F0870000140000200C01002004ED00E0AB
:102C800010B500290AD00878002807D005487844F4
:102C9000FEF76CF8002801D0002010BD02487844EF
:102CA00010BD0000CE010000C60100000808A0F51C
:102CB00000114FEA3101704743004FEAD30C4FEA4D
:102CC0003C0C43401FBF40070CF1605113F0FE4F16
:102CD00070471CF0006F03D100200CF000417047DA
:102CE0000CF0004343EA507010B540EACC0000F00D
:102CF0000EF800BF000000924FEA0001FFF7D6BFB8
:102D00004FF000414FF00000A1F5002170470EF197
:102D1000020E2EF0030E5EF8044B244204D44FEA58
:102D20004102B2F17F4F11D84FEA4003B3F17F4F18
:102D30000CD80ED14FEAD07CB2F17F4F0CEB4C0C8B
:102D40000CF1020C08BF4CEBD17C04E04FF0080CF6
:102D500001E04FEAD17C0CEB4C0324FA03F404F0BD
:102D60000704B4F1040C06D20EEB840CBDE810404D
:102D70004CF0010C6047DFE80CF0070802024FF04E
:102D80000040A0F5800010BD0846420018BFD2F1F7
:102D9000807288BF00F0004010BD4FF04070E1EE3F
:102DA000100A7047FDF731BD02400000000000A08E
:102DB0000000000005400000000000C80000000006
:102DC0000C4000000000409C000000001940000082
:102DD0000020BCBE0000000034400000BFC91B8EB4
:102DE00000000004B5400000504BCFD06607E2CF92
:102DF000010000006C4100003E8251AADFEEA734C2
:102E000001000000D9420000DCB5A0E23A301F9773
:102E1000FFFFFFFFB4450000FD25A0C8E9A3C14F97
:102E2000FFFFFFFFFF3F00000000008000000000E8
:102E3000FF3F00000000008000000000782E000826
:102E40000000002058000000E8010008D02E000813
:102E50005800002050430000040200081C0000003D
:102E600043000000F8FFFFFF0C0000000E00000010
:102E70000F0000002E0000000024F40000000000FD
:102E800000000000AAAAAAAA00000000000000009A
:102E90000000000000000000000000000000000032
:102EA0000000000000000000000000000000000022
:102EB0000000000000000000000000000000000012
:102EC0000000000000000000000000000000000002
:04000005080001AD41
:00000001FF
