:020000040800F2
:10000000A84300200D03000815030008170300088B
:10001000190300081B0300081D030008000000006E
:100020000000000000000000000000004D02000879
:100030002103000800000000A9020008F1040008E4
:1000400027030008270300082703000827030008E8
:1000500027030008270300082703000827030008D8
:1000600027030008270300082703000827030008C8
:1000700027030008270300082703000827030008B8
:1000800027030008270300082703000827030008A8
:100090002703000827030008270300082703000898
:1000A0002703000827030008270300082703000888
:1000B0002703000827030008270300082703000878
:1000C0002703000827030008270300082703000868
:1000D00027030008DD0500082703000827030008A0
:1000E0002703000827030008270300082703000848
:1000F0002703000827030008270300082703000838
:100100002703000827030008270300082703000827
:100110002703000827030008270300082703000817
:100120002703000827030008270300082703000807
:1001300027030008270300082703000827030008F7
:1001400027030008270300082703000827030008E7
:1001500027030008270300082703000827030008D7
:1001600027030008270300082703000827030008C7
:1001700027030008270300082703000800000000E9
:1001800027030008270300082703000827030008A7
:100190002703000827030008270300082703000897
:1001A00027030008270300082703000800F002F8CF
:1001B00000F03CF80AA090E8000C82448344AAF1C5
:1001C0000107DA4501D100F031F8AFF2090EBAE8C3
:1001D0000F0013F0010F18BFFB1A43F0010318477B
:1001E000780D0000980D0000103A24BF78C878C13F
:1001F000FAD8520724BF30C830C144BF04680C602D
:10020000704700000023002400250026103A28BF74
:1002100078C1FBD8520728BF30C148BF0B60704778
:100220001FB500F093FE1FBD10B510BD00F091F892
:100230001146FFF7F5FF00F013FA00F0AFF803B432
:10024000FFF7F2FF03BC00F0B7F800002C4B196871
:100250000868B0E8F04F80F30988BFF36F8F4FF064
:10026000000080F311887047000000000848006813
:10027000006880F308884FF0000080F3148862B6AD
:1002800061B6BFF34F8FBFF36F8F00DF00BF00BFBA
:1002900008ED00E0DFF80C00016841F47001016036
:1002A000704700BF88ED00E0EFF30980BFF36F8F68
:1002B000134B1A681EF0100F08BF20ED108A20E9BA
:1002C000F04F106009B44FF0500080F31188BFF375
:1002D0004F8FBFF36F8F00F09DFC4FF0000080F355
:1002E000118809BC19680868B0E8F04F1EF0100FBB
:1002F00008BFB0EC108A80F30988BFF36F8F704796
:1003000010000020EFF30580704700000948804787
:1003100009480047FEE7FEE7FEE7FEE7FEE7FEE7E7
:10032000FEE7FEE7FEE7FEE704480549054A064BFF
:10033000704700001D050008AD010008A83D002021
:10034000A8430020A83F0020A83F00207047704726
:100350007047754600F02CF8AE46050069465346D6
:1003600020F00700854618B020B5FFF7DDFFBDE897
:1003700020404FF000064FF000074FF000084FF00C
:10038000000B21F00701AC46ACE8C009ACE8C0099D
:10039000ACE8C009ACE8C0098D46704710B504460A
:1003A000AFF300802046BDE81040FFF748BF0000D3
:1003B00000487047443D002001491820ABBEFEE7CD
:1003C00026000200704700001848016841F0400113
:1003D0000160016841F0010101601548016841F0C8
:1003E00080610160011D0A680A60091D0A6842F007
:1003F00080620A600A1D136823F04063136003687B
:1004000043F080530360086840F080500860106833
:1004100020F0405010600748016821F0030101609E
:10042000C16821F00301C16070470000303802400C
:1004300000180240000002402B4A10B5106840F43A
:100440008030106010688003FCD5284940F20F10FE
:1004500008602549083108680860086840F4805041
:100460000860086840F400400860081F036823F033
:100470003F030360036847F6C074A3430360036847
:1004800023F440330360036823F4800303600368AC
:1004900043F480030360036843F0080303600368C8
:1004A00043F480730360036843F48063036003686C
:1004B00043F400630360036843F40053036010686F
:1004C00040F08070106010688001FCD5086800F072
:1004D00003000860086840F0020008600868C0F384
:1004E00081000228FAD110BD00380240003C0240D1
:1004F00010B5502080F31188BFF34F8FBFF36F8F7B
:1005000000F05CFC18B104494FF0805008600020F6
:1005100080F3118810BD000004ED00E0054801687B
:1005200041F47001016003494FF0006080390860B8
:100530007047000088ED00E02448016841F0100198
:10054000016022481438016841F00101016020482F
:10055000016841F400210160416821F400714160AB
:10056000816841F480218160C16821F44021C1602B
:10057000016841F400110160416821F4806141602B
:10058000816841F480118160C16821F44011C1602B
:10059000416A41F4EE6141620E4842F29641816047
:1005A000C16841F40051C160C16841F00801C160F7
:1005B000C16841F00401C160C16841F02001C1601F
:1005C00005492020C1F8000170470000443802406E
:1005D000000002400010014004E000E010B50D4CA6
:1005E0002068800614D5E068800611D5206820F0C8
:1005F000200020606068312802D107A000F024F8B4
:100600006068302804D1BDE8104007A000F01CB895
:1006100010BD0000001001407468617420697320EF
:100620006F6E650D0A0000007468617420697320A4
:1006300074776F0D0A00000002490A685206FCD563
:10064000486070470010014010B50446002303E0E5
:100650005B1CDBB2FFF7F0FFE05C0028F8D110BDB7
:100660001CB5FFF7E9FEFFF7AFFEFFF765FF0025BA
:1006700001242B46802208A10948CDE9004500F05D
:1006800071FB0023802207A10748CDE9004500F057
:1006900069FB00F083FAFEE7427574746F6E000028
:1006A000F10A00084C454400650B00082DE9F041B3
:1006B000184C0F460546E6682068001D00F07CF9DE
:1006C00038B9206890F82C100120884021698143B6
:1006D0002161681C07D137B12168BDE8F0410E489F
:1006E000091D00F0A2B920683544B5424560216873
:1006F00005D2A06BBDE8F041091D00F07EB9606B2A
:10070000091D00F07AF9A06A854200D2A562BDE811
:10071000F081000010000020300100202DE9F041A0
:10072000054600F08FF92E4CA068401CA0602068A0
:100730002C4F10B1606940B32DE02560A0680128FE
:1007400029D1002606EB860007EB800000F047F970
:10075000761C072EF6D323488C3000F040F9214850
:10076000A03000F03CF91F48B43000F038F91D48C3
:10077000C83000F034F91B48DC3000F030F919487B
:100780008C3060631430A06305E02068E96AC06AB9
:10079000884200D82560606A401C6062E96A0120D6
:1007A000226988401043206101EB810007EB800043
:1007B000291D00F03AF900F065F9606900280CD0B5
:1007C0002068E96AC06A884207D207494FF0805022
:1007D0000860BFF34F8FBFF36F8FBDE8F08100005B
:1007E000100000205400002004ED00E010B5044685
:1007F000006B00F05BF92046BDE8104000F056B9F0
:10080000144E154CA6F1C8074FF08058DFF84C90F5
:1008100012E000BF00F016F9F068C568281D00F06E
:10082000CBF8A068401EA0606068401E606000F0C9
:1008300029F92846FFF7DAFF60680028EAD138680E
:100840000128F9D9C9F80080BFF34F8FBFF36F8F2C
:10085000F2E700001C0100201000002004ED00E081
:100860002DE9F0479A46DDE9098481466FF00303DC
:10087000206B03EB82021044089E20F007077807E4
:1008800007D0502080F31188BFF34F8FBFF36F8FD5
:10089000FEE7002561B1002023180A5C83F83420AC
:1008A0000A5C12B1401C1028F6D384F8435001E0D2
:1008B00084F83450072E00D30626E662C4E9116599
:1008C000201D00F097F804F1180000F093F824615F
:1008D000C6F107006462A061E56484F85050524696
:1008E0004946384600F052F82060B8F1000F01D0B8
:1008F000C8F80040BDE8F0870648416B096829B197
:10090000416BC968C9684968816270474FF0FF311F
:10091000FAE700001000002008484068401C4FF033
:10092000500080F3118804D0BFF34F8FBFF36F8F57
:10093000FEE7BFF34F8FBFF36F8FFEE70400002089
:1009400070B504460025400704D004F00700C0F14C
:100950000800044400F056F90A49486818B90A48E2
:1009600020F0070048600A6843F6F83310199842EF
:1009700004D2904202D94B6808609D1800F084FAB6
:10098000284670BD4C0000204C01002010B5031F0C
:100990004FF080741C601B1F21F001011960191FAA
:1009A000044B0B6014390A60091F6FF002024438CF
:1009B0000A6010BD19090008D0E9013201699A6086
:1009C000D0E901235A604A68824201D182684A60B4
:1009D000002202610868401E08600868704700F144
:1009E00008014FF0FF32C0E90112C160016100212E
:1009F0000160704700210161704730B50B685A1CD7
:100A000002D000F1080202E0026904E022465468C4
:100A100025689D42FAD953684B6099608A6051609D
:100A200008610168491C016030BD42684A609368F2
:100A30008B6093685960916008610168491C01608E
:100A400070470000502080F31188BFF34F8FBFF331
:100A50006F8F0A494868401C486001280CD108483B
:100A6000006810F0FF0F07D0502080F31188BFF30B
:100A70004F8FBFF36F8FFEE7704700000400002028
:100A800004ED00E00849486828B1401E486001D1E3
:100A900080F311887047502080F31188BFF34F8F87
:100AA000BFF36F8FFEE7000004000020002807D08E
:100AB000502080F31188BFF34F8FBFF36F8FFEE795
:100AC000704700004FF0E02000210161816107497B
:100AD0004FF47A72096801EB41014900B1FBF2F170
:100AE000491E41610721016170470000000000209C
:100AF000054C2069C00702D004A0FFF7A5FDC8205F
:100B000000F00AF8F5E70000000002404275747436
:100B10006F6E0D0A0000000010B5020014D00F48DF
:100B2000006B38B1502080F31188BFF34F8FBFF3B3
:100B30006F8FFEE700F066F800211046FFF7B6FD64
:100B400000F0A2F9002807D105494FF08050086055
:100B5000BFF34F8FBFF36F8F10BD00001000002058
:100B600004ED00E00C4C4FF47A75206880F480406E
:100B700020602846FFF7D0FF206880F48040206086
:100B8000206880F4005020602846FFF7C5FF2068E9
:100B900080F400502060E8E7141802401CB51548A6
:100BA0000024CDE900402346802213A1144800F020
:100BB000D9F8012809D0401C1AD1502080F311889F
:100BC000BFF34F8FBFF36F8FFEE7502080F3118884
:100BD000BFF34F8FBFF36F8F06484FF0FF312C38B4
:100BE000816201214161C460BDE81C4000F040B851
:100BF0001CBD00003C00002049444C4500000000A2
:100C0000010800080248016B491C0163704700009D
:100C1000100000201448016B11B10121C16170471F
:100C20000021C1610169B1FA81F1C1F11F0101EB3C
:100C300081020E4951F822306BB101EB820101F1C2
:100C400008034A6852684A609A4201D152684A6071
:100C5000D16801607047502080F31188BFF34F8F37
:100C6000BFF36F8FFEE7000010000020540000204B
:100C70001CB537480168374A914207D1502080F3AC
:100C80001188BFF34F8FBFF36F8FFEE700683149C4
:100C9000491E884207D1502080F31188BFF34F8F3F
:100CA000BFF36F8FFEE72C4908780190FF20087092
:100CB00008788DF800009DF800009DF8002000F0F5
:100CC000F000904207D0502080F31188BFF34F8F7F
:100CD000BFF36F8FFEE79DF80000204C00F050003E
:100CE00020700720A06005E09DF8002052008DF8DC
:100CF0000020401E9DF800201206F5D4A0600328B5
:100D000007D0502080F31188BFF34F8FBFF36F8F50
:100D1000FEE74FF44070A060019808700C48203046
:100D2000016841F470010160016841F070410160A7
:100D3000FFF7C8FE00206060FFF7ACFA08480168C2
:100D400041F040410160FFF791FA00201CBD000016
:100D500000ED00E071C20F4100E400E0040000205B
:100D600034EF00E02DE9FF5F8346DDE90E87994609
:100D700016468A469000FFF7E3FD05001AD054207E
:100D8000FFF7DEFD040012D025630021CDE902410A
:100D9000CDE900874B46324651465846FFF760FD85
:100DA0002046FFF7BBFC012004B0BDE8F09F2846B9
:100DB000FFF77CFE4FF0FF30F6E700002DE9F04131
:100DC0002F4C0026206B28B1A069401CA061304642
:100DD000BDE8F081E5686D1CE56013D1606B0068CB
:100DE00038B1502080F31188BFF34F8FBFF36F8F5E
:100DF000FEE7606BA16B6163A063206A401C206208
:100E0000FFF77AFDA06ADFF87C80854209D3606B2A
:100E10000068A0B1606BC068C7687868854211D26D
:100E2000A0622068C06A00EB800158F82100012808
:100E300000D90126E0690028C9D00126C7E74FF094
:100E4000FF30EDE7381DFFF7B7FDB86A18B107F1BD
:100E50001800FFF7B1FDF96A0120226988401043AC
:100E6000206101EB810108EB8100391DFFF7DDFDF9
:100E7000F86A2168C96A8842C9D30126C7E7000019
:100E800010000020540000202DE9F0472C4D0024D4
:100E90002746286B38B1FFF7D5FD286B401E286325
:100EA000286B40B146E0502080F31188BFF34F8F8C
:100EB000BFF36F8FFEE7A968224E0120D1B3A6F1E0
:100EC000B40980463068E8B1F068C46804F11800DD
:100ED000FFF772FD201DFFF76FFDE06A2A6908FA2F
:100EE00000F11143296100EB800109EB8100211D14
:100EF000FFF79BFDE06A2968C96A8842E2D3C5F81A
:100F00001C80DFE70CB1FFF7F7FCAC6944B1464643
:100F1000FFF754FF00B1EE61641EF9D10020A86113
:100F2000E86938B10849012738070860BFF34F8FD7
:100F3000BFF36F8FFFF7A6FD3846BDE8F0870000CE
:100F4000100000200801002004ED00E04FF0407088
:100F5000E1EE100A70470000780F00080000002042
:100F600054000000E8010008CC0F000854000020E5
:100F700054430000040200080024F40000000000B4
:100F8000AAAAAAAA000000000000000000000000B9
:100F90000000000000000000000000000000000051
:100FA0000000000000000000000000000000000041
:100FB0000000000000000000000000000000000031
:0C0FC00000000000000000000000000025
:04000005080001AD41
:00000001FF
