:020000040800F2
:100000006006002031020008390200083B020008A7
:100010003D0200083F020008410200080000000005
:100020000000000000000000000000004302000883
:1000300045020008000000004702000849020008CD
:100040004B0200084B0200084B0200084B0200085C
:100050004B0200084B0200084B0200084B0200084C
:100060004B0200084B0200084B0200084B0200083C
:100070004B0200084B0200084B0200084B0200082C
:100080004B0200084B0200084B0200084B0200081C
:100090004B0200084B0200084B0200084B0200080C
:1000A0004B0200084B0200084B0200084B020008FC
:1000B0004B0200084B0200084B0200084B020008EC
:1000C0004B0200084B0200084B0200084B020008DC
:1000D0004B0200084B0200084B0200084B020008CC
:1000E0004B0200084B0200084B0200084B020008BC
:1000F0004B0200084B0200084B0200084B020008AC
:100100004B0200084B0200084B0200084B0200089B
:100110004B0200084B0200084B0200084B0200088B
:100120004B0200084B0200084B0200084B0200087B
:100130004B0200084B0200084B0200084B0200086B
:100140004B0200084B0200084B0200084B0200085B
:100150004B0200084B0200084B0200084B0200084B
:100160004B0200084B0200084B0200084B0200083B
:100170004B0200084B0200084B0200080000000080
:100180004B0200084B0200084B0200084B0200081B
:100190004B0200084B0200084B0200084B0200080B
:1001A0004B0200084B0200084B02000800F002F866
:1001B00000F02EF80AA090E8000C82448344AAF1D3
:1001C0000107DA4501D100F023F8AFF2090EBAE8D1
:1001D0000F0013F0010F18BFFB1A43F0010318477B
:1001E000C8010000D80100000023002400250026DB
:1001F000103A28BF78C1FBD8520728BF30C148BF8A
:100200000B6070471FB500F0C9F81FBD10B510BDD9
:1002100000F031F81146FFF7F5FF00F07BF800F031
:100220004FF803B4FFF7F2FF03BC00F057F80000EB
:100230000948804709480047FEE7FEE7FEE7FEE77A
:10024000FEE7FEE7FEE7FEE7FEE7FEE704480549B6
:10025000054A064B70470000ED020008AD0100089A
:100260006000002060060020600200206002002084
:10027000704770477047754600F02CF8AE46050091
:100280006946534620F00700854618B020B5FFF7B1
:10029000DDFFBDE820404FF000064FF000074FF0B3
:1002A00000084FF0000B21F00701AC46ACE8C00994
:1002B000ACE8C009ACE8C009ACE8C0098D4670479D
:1002C00010B50446AFF300802046BDE81040FFF7AC
:1002D000A8BF000000487047000000200149182016
:1002E000ABBEFEE72600020070470000054801682B
:1002F00041F47001016003494FF0006080390860EB
:100300007047000088ED00E0002100E0491C8142B8
:10031000FCD370471E48016841F0400101601D4850
:10032000016841F080610160011D0A680A60091DD1
:100330000A6842F080620A600A1D136803F0406395
:100340001360036843F080530360086840F08050F6
:100350000860106800F0405010600E4A0E4B1432D6
:10036000106840F400501060106820F48040106065
:100370001846FFF7C9FF106840F48040106010680D
:1003800020F4005010601846FFF7BEFFE8E70000B9
:10039000303802400018024040420F004FF04070D9
:1003A000E1EE100A70470000B803000800000020CA
:0803B00060060000E8010008EE
:04000005080001AD41
:00000001FF
