:020000040800F2
:10000000A84300200D03000815030008170300088B
:10001000190300081B0300081D030008000000006E
:100020000000000000000000000000004D02000879
:100030002103000800000000A9020008A908000828
:1000400027030008270300082703000827030008E8
:1000500027030008270300082703000827030008D8
:1000600027030008270300082703000827030008C8
:1000700027030008270300082703000827030008B8
:1000800027030008270300082703000827030008A8
:100090002703000827030008270300082703000898
:1000A0002703000827030008270300082703000888
:1000B0002703000827030008270300082703000878
:1000C0002703000827030008270300082703000868
:1000D00027030008F5080008270300082703000885
:1000E0002703000827030008270300082703000848
:1000F0002703000827030008270300082703000838
:100100002703000827030008270300082703000827
:100110002703000827030008270300082703000817
:100120002703000827030008270300082703000807
:1001300027030008270300082703000827030008F7
:1001400027030008270300082703000827030008E7
:1001500027030008270300082703000827030008D7
:1001600027030008270300082703000827030008C7
:1001700027030008270300082703000800000000E9
:1001800027030008270300082703000827030008A7
:100190002703000827030008270300082703000897
:1001A00027030008270300082703000800F002F8CF
:1001B00000F03CF80AA090E8000C82448344AAF1C5
:1001C0000107DA4501D100F031F8AFF2090EBAE8C3
:1001D0000F0013F0010F18BFFB1A43F0010318477B
:1001E000A0180000C0180000103A24BF78C878C1D9
:1001F000FAD8520724BF30C830C144BF04680C602D
:10020000704700000023002400250026103A28BF74
:1002100078C1FBD8520728BF30C148BF0B60704778
:100220001FB501F027FC1FBD10B510BD00F008F987
:100230001146FFF7F5FF00F003FC00F026F903B4C8
:10024000FFF7F2FF03BC00F02DF900002C4B1968FA
:100250000868B0E8F04F80F30988BFF36F8F4FF064
:10026000000080F311887047000000000848006813
:10027000006880F308884FF0000080F3148862B6AD
:1002800061B6BFF34F8FBFF36F8F00DF00BF00BFBA
:1002900008ED00E0DFF80C00016841F47001016036
:1002A000704700BF88ED00E0EFF30980BFF36F8F68
:1002B000134B1A681EF0100F08BF20ED108A20E9BA
:1002C000F04F106009B44FF0500080F31188BFF375
:1002D0004F8FBFF36F8F00F083FF4FF0000080F36C
:1002E000118809BC19680868B0E8F04F1EF0100FBB
:1002F00008BFB0EC108A80F30988BFF36F8F704796
:1003000014000020EFF30580704700000948804783
:1003100009480047FEE7FEE7FEE7FEE7FEE7FEE7E7
:10032000FEE7FEE7FEE7FEE704480549054A064BFF
:1003300070470000D5080008AD010008A83D002066
:10034000A8430020A83F0020A83F0020032A40F235
:10035000308010F0030C00F0158011F8013BBCF167
:10036000020F624498BF11F801CB00F8013B38BF7F
:1003700011F8013BA2F1040298BF00F801CB38BF8D
:1003800000F8013B11F0030300F02880083AC0F0A8
:10039000088051F8043B083A51F804CBA0E8081053
:1003A000F5E7121D5CBF51F8043B40F8043BAFF386
:1003B0000080D20724BF11F8013B11F801CB48BFE0
:1003C00011F8012B24BF00F8013B00F801CB48BF16
:1003D00000F8012B704770477047704710B5203AFE
:1003E000C0F00B80B1E81850203AA0E81850B1E8EE
:1003F0001850A0E81850BFF4F5AF5FEA027C24BFA4
:10040000B1E81850A0E8185044BF18C918C0BDE89A
:1004100010405FEA827C24BF51F8043B40F8043B63
:1004200008BF7047D20728BF31F8023B48BF11F818
:10043000012B28BF20F8023B48BF00F8012B704772
:10044000754600F02BF8AE4605006946534620F08D
:100450000700854618B020B5FFF766FFBDE82040CD
:100460004FF000064FF000074FF000084FF0000B70
:1004700021F00701AC46ACE8C009ACE8C009ACE823
:10048000C009ACE8C0098D46704710B50446AFF30B
:1004900000802046BDE81040FFF7D1BE00487047FD
:1004A000483D002001491820ABBEFEE726000200AF
:1004B000704700001848016841F040010160016880
:1004C00041F0010101601548016841F0806101605F
:1004D000011D0A680A60091D0A6842F080620A600C
:1004E0000A1D136823F040631360036843F08053D0
:1004F0000360086840F080500860106820F04050A9
:1005000010600748016821F003010160C16821F013
:100510000301C160704700003038024000180240FB
:1005200000000240F0B5AD4A106840F001001060D4
:10053000AA481030016841F001010160A848016833
:1005400021F440610160016841F40061016041688B
:1005500021F020014160816841F440618160C168FF
:1005600021F44061C160016A41F4801101624103DC
:100570004AF6C7738B624FF47A74CC62C8254D6318
:100580008D6945F060058D610D6A45F001050D62CC
:100590000D6A25F002050D620D6825F010050D604D
:1005A0000D6845F001050D60116841F00201116010
:1005B000116841F010011160884914310A6842F055
:1005C00001020A60016821F440410160016841F4C0
:1005D00000410160416821F080014160816841F47F
:1005E00040418160C16821F44041C160016A41F02D
:1005F000805101627B48016821F0030101600168BC
:1006000041F002010160011D0A6822F001020A6046
:100610000A1D156845F003051560151D2E6826F0A6
:1006200003062E606F4E2036376847F001073760AB
:10063000076827F00C070760076847F0080707609E
:10064000086820F002000860106840F00C0010609C
:10065000286820F00C002860306840F010003060FE
:100660006148016821F440210160016841F40021E2
:100670000160416821F400714160816841F44021CA
:100680008160C16821F44021C160416A41F01001DC
:100690004162016821F440010160016841F40001F8
:1006A0000160416821F400614160816841F44001CA
:1006B0008160C16821F44001C160416A41F4805108
:1006C0004162016821F040610160016841F0006110
:1006D0000160416821F400514160816841F040614E
:1006E0008160C16821F04061C160416A41F48011BC
:1006F00041623E48016841F020010160016841F01B
:10070000800101608362C462611041638163C163DF
:10071000816921F010018161816941F020018161CD
:10072000816941F040018161816921F480518161D9
:10073000816941F400518161816941F480418161A5
:10074000C16921F01001C161C16941F02001C1619D
:10075000C16941F04001C161016A41F001010162DA
:10076000016A41F004010162016A41F01001016275
:10077000016A41F040010162016A41F48071016245
:10078000016A41F480610162416C41F00101416400
:10079000416C41F002014164416C41F0040141644B
:1007A000416C41F008014164416C41F01001416429
:1007B000416C41F020014164416C41F040014164D1
:1007C000416C41F080014164016841F00101016028
:1007D000416C41F400414164F0BD000030380240FA
:1007E00000000240000402400010024000000140EE
:1007F0002B4A10B5106840F48030106010688003F8
:10080000FCD5284940F20F100860254908310868D6
:100810000860086840F480500860086840F40040B0
:100820000860081F036823F03F030360036847F66E
:10083000C074A3430360036823F440330360036878
:1008400023F480030360036843F4800303600368B8
:1008500043F008030360036843F480730360036894
:1008600043F480630360036843F400630360036838
:1008700043F400530360106840F08070106010680B
:100880008001FCD5086800F003000860086840F0AB
:10089000020008600868C0F381000228FAD110BD88
:1008A00000380240003C024010B5502080F311880F
:1008B000BFF34F8FBFF36F8F00F08EFF18B1044965
:1008C0004FF080500860002080F3118810BD0000B8
:1008D00004ED00E00548016841F47001016003493E
:1008E0004FF00060803908607047000088ED00E03C
:1008F00000F02EB810B50D4C2068800614D5E068C5
:10090000800611D5206820F0200020606068312822
:1009100002D107A000F07AF86068322804D1BDE85F
:10092000104007A000F072B810BD00000010014098
:1009300074686174206973206F6E650D0A00000091
:10094000746861742069732074776F0D0A00000069
:100950002348016841F01001016021481438016802
:1009600041F0010101601F48016841F4002101606C
:10097000416821F400714160816841F48021816007
:10098000C16821F44021C160016841F40011016097
:10099000416821F480614160816841F48011816087
:1009A000C16821F44011C160416A41F4EE614162C5
:1009B0000D4842F296418160C16841F40051C16026
:1009C000C16841F00801C160C16841F00401C16023
:1009D000C16841F02001C160252000F023B800006B
:1009E00044380240000002400010014002490A68F9
:1009F0005206FCD5486070470010014002490A6861
:100A00005206FCD5486070470010014010B50446FE
:100A1000002303E05B1CDBB2FFF7E8FFE05C00288B
:100A2000F8D110BD002809DB00F01F020121914020
:100A30004009800000F1E020C0F80011704700007C
:100A40001CB5FFF7D5FEFFF735FDFFF751FFFFF7A8
:100A500069FD002501242B46802214A11548CDE90B
:100A6000004500F07FFE0023802213A11348CDE94A
:100A7000004500F077FE0023802211A11448CDE943
:100A8000004500F06FFE0023802212A11548CDE939
:100A9000004500F067FE00220121052000F076FCF1
:100AA0001149086000F060FBFEE7000042757474B5
:100AB0006F6E0000711000084C454400F5100008EE
:100AC000546573745F51756575655F310000000092
:100AD0003D120008546573745F51756575655F322A
:100AE000000000006D120008040000202DE9F04114
:100AF000184C0F460546E6682068001D00F00AFA0B
:100B000038B9206890F82C10012088402169814371
:100B10002161681C07D137B12168BDE8F0410E485A
:100B2000091D00F042BA20683544B542456021688D
:100B300005D2A06BBDE8F041091D00F01EBA606B44
:100B4000091D00F01AFAA06A854200D2A562BDE82C
:100B5000F081000014000020340100202DE9F04154
:100B6000054600F02FFA2E4CA068401CA0602068BB
:100B70002C4F10B1606940B32DE02560A0680128BA
:100B800029D1002606EB860007EB800000F0E7F98C
:100B9000761C072EF6D323488C3000F0E0F921486C
:100BA000A03000F0DCF91F48B43000F0D8F91D483F
:100BB000C83000F0D4F91B48DC3000F0D0F91948F7
:100BC0008C3060631430A06305E02068E96AC06A75
:100BD000884200D82560606A401C6062E96A012092
:100BE000226988401043206101EB810007EB8000FF
:100BF000291D00F0DAF900F005FA606900280CD030
:100C00002068E96AC06A884207D207494FF08050DD
:100C10000860BFF34F8FBFF36F8FBDE8F081000016
:100C2000140000205800002004ED00E030B4026CF5
:100C30000B46002A0BD0C1681144C1608468A142F0
:100C400001D30168C16030BC1846FFF77FBB30BCE0
:100C500070472DE9F041856B174604460026026C6B
:100C600082B1C7B1E068FFF771FBE168206C091A37
:100C7000E1602268914202D2A168081AE060022F66
:100C800016D017E02068A8B9A06800F00BFE064651
:100C90000020A0600EE06068FFF758FB216C6068E0
:100CA00008446060A168884204D32068606001E065
:100CB00005B16D1E6D1CA5633046BDE8F08110B511
:100CC0000446006B00F0B2F92046BDE8104000F089
:100CD000ADB90000144E154CA6F1C8074FF080586E
:100CE000DFF84C9012E000BF00F06CF9F068C568C6
:100CF000281D00F00FF9A068401EA0606068401E2B
:100D0000606000F07FF92846FFF7D9FF606800288F
:100D1000EAD138680128F9D9C9F80080BFF34F8FAC
:100D2000BFF36F8FF2E700002001002014000020C5
:100D300004ED00E02DE9F0479A46DDE9098481469B
:100D40006FF00303206B03EB82021044089E20F037
:100D50000707780707D0502080F31188BFF34F8F23
:100D6000BFF36F8FFEE7002561B1002023180A5CF6
:100D700083F834200A5C12B1401C1028F6D384F8A2
:100D8000435001E084F83450072E00D30626E66273
:100D9000C4E91165201D00F0EDF804F1180000F021
:100DA000E9F82461C6F107006462A061E56484F893
:100DB000505052464946384600F096F82060B8F147
:100DC000000F01D0C8F80040BDE8F08710B5044618
:100DD00000F0F8F8A06B28B15FF0000400F012F901
:100DE000204610BD0124F9E70648416B096829B186
:100DF000416BC968C9684968816270474FF0FF312B
:100E0000FAE700001400002008484068401C4FF03A
:100E1000500080F3118804D0BFF34F8FBFF36F8F62
:100E2000FEE7BFF34F8FBFF36F8FFEE70800002090
:100E30002DE9F041044600F0C5F894F9455004F15D
:100E4000240609E0606A48B1304600F077FD08B139
:100E500000F06CF96D1E6DB2002DF3DC4FF0FF3623
:100E600084F8456000F0CEF800F0ACF894F94450F6
:100E700004F1100709E0206948B1384600F05EFD32
:100E800008B100F053F96D1E6DB2002DF3DC84F84B
:100E90004460BDE8F04100F0B5B8000070B504460C
:100EA0000025400704D004F00700C0F10800044406
:100EB00000F08EF90A49486818B90A4820F007007E
:100EC00048600A6843F6F8331019984204D29042F9
:100ED00002D94B6808609D1800F06AFD284670BD75
:100EE000500000205001002010B5031F4FF0807407
:100EF0001C601B1F21F001011960191F044B0B60BE
:100F000014390A60091F6FF0020244380A6010BDEC
:100F1000090E0008D0E9013201699A60D0E9012385
:100F20005A604A68824201D182684A6000220261A6
:100F30000868401E08600868704710B5040006D0B5
:100F400000F040F8A46B00F05DF8204610BD502082
:100F500080F31188BFF34F8FBFF36F8FFEE700F16F
:100F600008014FF0FF32C0E90112C16001610021A8
:100F70000160704700210161704730B50B685A1C51
:100F800002D000F1080202E0026904E0224654683F
:100F900025689D42FAD953684B6099608A60516018
:100FA00008610168491C016030BD42684A6093686D
:100FB0008B6093685960916008610168491C016009
:100FC00070470000502080F31188BFF34F8FBFF3AC
:100FD0006F8F0A494868401C486001280CD10848B6
:100FE000006810F0FF0F07D0502080F31188BFF386
:100FF0004F8FBFF36F8FFEE770470000080000209F
:1010000004ED00E00849486828B1401E486001D15D
:1010100080F311887047502080F31188BFF34F8F01
:10102000BFF36F8FFEE7000008000020002807D004
:10103000502080F31188BFF34F8FBFF36F8FFEE70F
:10104000704700004FF0E0200021016181610749F5
:101050004FF47A72096801EB41014900B1FBF2F1EA
:10106000491E416107210161704700000000002016
:10107000054C2069C00702D004A0FFF7C7FCC820B8
:1010800000F00AF8F5E700000000024042757474B1
:101090006F6E0D0A0000000010B5020014D00F485A
:1010A000006B38B1502080F31188BFF34F8FBFF32E
:1010B0006F8FFEE700F08CF800211046FFF716FD59
:1010C00000F076FC002807D105494FF080500860F9
:1010D000BFF34F8FBFF36F8F10BD000014000020CF
:1010E00004ED00E002490A6A0260C9684160704785
:1010F000140000200C4C4FF47A75206880F4804076
:1011000020602846FFF7C8FF206880F480402060F8
:10111000206880F4005020602846FFF7BDFF20685B
:1011200080F400502060E8E71418024001490120D3
:10113000C86170471400002010B50C4650B1094931
:1011400009681831FFF719FF2046BDE8104001215A
:10115000FFF7CCBC502080F31188BFF34F8FBFF353
:101160006F8FFEE7140000201CB515480024CDE960
:1011700000402346802213A1144800F0F3FA01280E
:1011800009D0401C1AD1502080F31188BFF34F8F33
:10119000BFF36F8FFEE7502080F31188BFF34F8FAE
:1011A000BFF36F8F06484FF0FF312C388162012169
:1011B0004161C460BDE81C4000F06EB81CBD000079
:1011C0004000002049444C4500000000D50C0008B8
:1011D0000248016B491C01637047000014000020A5
:1011E0001448016B11B10121C16170470021C16137
:1011F0000169B1FA81F1C1F11F0101EB81020E49D0
:1012000051F822306BB101EB820101F108034A6809
:1012100052684A609A4201D152684A60D1680160BE
:101220007047502080F31188BFF34F8FBFF36F8F4B
:10123000FEE70000140000205800002008B51E2022
:10124000094D8DF800004FF47A7400231A46694660
:10125000286800F001F99DF800102046491C8DF81F
:101260000010FFF719FFF0E70400002008B5094C53
:101270002068FFF762FE40B100226946206800F056
:101280009BF99DF80000FFF7B9FB6420FFF704FF0E
:10129000EEE70000040000201CB537480168374A1B
:1012A000914207D1502080F31188BFF34F8FBFF3D5
:1012B0006F8FFEE700683149491E884207D15020F0
:1012C00080F31188BFF34F8FBFF36F8FFEE72C4978
:1012D00008780190FF20087008788DF800009DF8CC
:1012E00000009DF8002000F0F000904207D0502050
:1012F00080F31188BFF34F8FBFF36F8FFEE79DF828
:101300000000204C00F0500020700720A06005E095
:101310009DF8002052008DF80020401E9DF800200E
:101320001206F5D4A060032807D0502080F311885E
:10133000BFF34F8FBFF36F8FFEE74FF44070A06095
:10134000019808700C482030016841F47001016078
:10135000016841F070410160FFF774FE0020606099
:10136000FEF798FF0848016841F040410160FEF730
:101370007DFF00201CBD000000ED00E071C20F41A8
:1013800000E400E00800002034EF00E070B50E46F5
:10139000050012D005FB06F04830FFF77FFD040082
:1013A00009D004F1480120467EB10160C0E90F5622
:1013B000012100F00DF8204670BD502080F3118807
:1013C000BFF34F8FBFF36F8FFEE70060EEE70000C3
:1013D00070B50D46040025D0FFF7F4FDD4E90F20C9
:1013E000216802FB0011A1600021A16321686160F6
:1013F0000A46D4E90F01401E00FB0121E1602146AD
:101400004FF0FF3001F8440F487004F110008DB127
:10141000FFF7A5FD04F12400FFF7A1FDFFF7F2FDA2
:10142000012070BD502080F31188BFF34F8FBFF3B0
:101430006F8FFEE721690029F0D000F07FFA0028C5
:10144000ECD004494FF080500860BFF34F8FBFF3DA
:101450006F8FE3E704ED00E02DE9FF4782B01D4602
:101460008A464FF00008040003D0BAF1000F08D0FC
:1014700011E0502080F31188BFF34F8FBFF36F8FBF
:10148000FEE7206C38B1502080F31188BFF34F8FF6
:10149000BFF36F8FFEE7022D0AD1E06B012807D062
:1014A000502080F31188BFF34F8FBFF36F8FFEE79B
:1014B00000F084F93F4F4FF000094FF0805648B9D3
:1014C000049838B1502080F31188BFF34F8FBFF3D9
:1014D0006F8FFEE7FFF776FDA06BE16B884207D3C5
:1014E000022D05D00498D0B1B8F1000F1AD01EE03B
:1014F0002A4651462046FFF7ACFB616A19B104F158
:10150000240000F01BFA20B13E60BFF34F8FBFF301
:101510006F8FFFF777FD012006B0BDE8F087FFF77A
:1015200071FD22E06846FFF7DDFD4FF00108FFF78F
:1015300069FDFFF74DFEFFF745FD94F94400401C9F
:1015400001D184F8449094F94500401C01D184F8FD
:101550004590FFF757FD04A9684600F0C9F830B17F
:101560002046FFF765FC00F023FA0020D4E7FFF7E0
:1015700029FDA06BE16B884213D1FFF743FD04F115
:1015800010000499FFF7D8FD2046FFF751FC00F04A
:101590000FFA00289ED13E60BFF34F8FBFF36F8FCD
:1015A00098E7FFF72FFD2046FFF742FC00F000FA16
:1015B00090E7000004ED00E02DE9F747002683B036
:1015C0008A46040003D0BAF1000F08D011E0502081
:1015D00080F31188BFF34F8FBFF36F8FFEE7206C4E
:1015E00038B1502080F31188BFF34F8FBFF36F8F56
:1015F000FEE700F0E3F8DFF8F4804FF000094FF069
:10160000805748B9059838B1502080F31188BFF34E
:101610004F8FBFF36F8FFEE7FFF7D4FCA56BC5B10B
:1016200051462046FFF702FB6D1EA563206950B1AD
:1016300004F1100000F082F928B1C8F80070BFF37F
:101640004F8FBFF36F8FFFF7DDFC012006B0BDE8C1
:10165000F087059808B11EB106E0FFF7D3FC27E03C
:101660006846FFF73FFD0126FFF7CCFCFFF7B0FD12
:10167000FFF7A8FC94F94400401C01D184F8449081
:1016800094F94500401C01D184F84590FFF7BAFC5D
:1016900005A9684600F02CF8002820460AD0FFF77C
:1016A000C7FB00F085F92046FFF790FB0028B3D078
:1016B0000020CBE7FFF78AFB90B104F124000599E5
:1016C000FFF73AFD2046FFF7B3FB00F071F9002861
:1016D000A2D1C8F80070BFF34F8FBFF36F8F9BE7A5
:1016E0002046FFF7A5FB00F063F995E704ED00E065
:1016F0002DE9F0410C46050011D0C4B1FFF762FCA2
:10170000174BDA686E682068911B471C17D02F684A
:101710001B6A9F4219D0964217D8012410E050202E
:1017200080F31188BFF34F8FBFF36F8FFEE7502018
:1017300080F31188BFF34F8FBFF36F8FFEE7002454
:10174000FFF760FC2046BDE8F081884205D9401AC9
:1017500020602846FFF7C6FCF1E700202060DCE7A8
:10176000140000202DE9FF5F8346DDE90E879946CE
:1017700016468A469000FFF791FB05001AD05420C8
:10178000FFF78CFB040012D025630021CDE9024154
:10179000CDE900874B46324651465846FFF7CAFA14
:1017A0002046FFF7DBF9012004B0BDE8F09F284692
:1017B000FFF73CFC4FF0FF30F6E7000005484169B9
:1017C00019B1006B18B1002070470120704702204A
:1017D00070470000140000202DE9F0412F4C002636
:1017E000206B28B1A069401CA0613046BDE8F081A3
:1017F000E5686D1CE56013D1606B006838B150205E
:1018000080F31188BFF34F8FBFF36F8FFEE7606BDC
:10181000A16B6163A063206A401C2062FFF7E4FAB9
:10182000A06ADFF87C80854209D3606B0068A0B1B4
:10183000606BC068C7687868854211D2A062206872
:10184000C06A00EB800158F82100012800D9012668
:10185000E0690028C9D00126C7E74FF0FF30EDE767
:10186000381DFFF757FBB86A18B107F11800FFF7EA
:1018700051FBF96A0120226988401043206101EB85
:10188000810108EB8100391DFFF78FFBF86A2168A1
:10189000C96A8842C9D30126C7E7000014000020A6
:1018A0005800002070B504004FF0000140D0214DD9
:1018B0002868844207D0502080F31188BFF34F8FEF
:1018C000BFF36F8FFEE7A06C38B1401EA064636C5D
:1018D000E26A9A422CD040B12AE0502080F311886D
:1018E000BFF34F8FBFF36F8FFEE7201DFFF712FB93
:1018F000114A012150B9E06A00EB800352F823300D
:1019000023B92B6901FA00F083432B61606CE0621C
:10191000C0F10700A061E06A2B6981401943296189
:1019200000EB800002EB8000211DFFF73EFB012150
:10193000084670BD14000020580000202DE9F04139
:10194000C068C468ACB104F118000746FFF7E2FABA
:10195000154D286B0126A0B139461448FFF725FB29
:10196000E06A2968C96A88421CD90120EE61BDE895
:10197000F081502080F31188BFF34F8FBFF36F8F3A
:10198000FEE7201DFFF7C6FAE16A2A6906FA01F0B0
:101990001043286101EB81000449B43901EB800058
:1019A000211DDBE70020E2E7140000200C010020ED
:1019B0002DE9F0472C4D00242746286B38B1FFF75E
:1019C00001FB286B401E2863286B40B146E0502085
:1019D00080F31188BFF34F8FBFF36F8FFEE7A968C5
:1019E000224E0120D1B3A6F1B40980463068E8B197
:1019F000F068C46804F11800FFF78CFA201DFFF7A7
:101A000089FAE06A2A6908FA00F11143296100EBBA
:101A1000800109EB8100211DFFF7C7FAE06A296800
:101A2000C96A8842E2D3C5F81C80DFE70CB1FFF732
:101A3000DBF9AC6944B14646FFF7CEFE00B1EE617A
:101A4000641EF9D10020A861E86938B1084901276E
:101A500038070860BFF34F8FBFF36F8FFFF7D2FADD
:101A60003846BDE8F0870000140000200C0100207B
:101A700004ED00E04FF04070E1EE100A7047000006
:101A8000A01A00080000002058000000E80100082B
:101A9000F81A000858000020504300000402000813
:101AA0000024F4000000000000000000AAAAAAAA76
:101AB0000000000000000000000000000000000026
:101AC0000000000000000000000000000000000016
:101AD0000000000000000000000000000000000006
:101AE00000000000000000000000000000000000F6
:081AF0000000000000000000EE
:04000005080001AD41
:00000001FF
