:020000040800F2
:10000000F8A700200D0300081503000817030008D7
:10001000190300081B0300081D030008000000006E
:100020000000000000000000000000001F030008A6
:100030002103000800000000230300082503000836
:1000400027030008270300082703000827030008E8
:1000500027030008270300082703000827030008D8
:1000600027030008270300082703000827030008C8
:1000700027030008270300082703000827030008B8
:1000800027030008270300082703000827030008A8
:100090002703000827030008270300082703000898
:1000A0002703000827030008270300082703000888
:1000B0002703000827030008270300082703000878
:1000C0002703000827030008270300082703000868
:1000D0002703000827030008270300082703000858
:1000E0002703000827030008270300082703000848
:1000F0002703000827030008270300082703000838
:100100002703000827030008270300082703000827
:100110002703000827030008270300082703000817
:100120002703000827030008270300082703000807
:1001300027030008270300082703000827030008F7
:1001400027030008270300082703000827030008E7
:1001500027030008270300082703000827030008D7
:1001600027030008270300082703000827030008C7
:1001700027030008270300082703000800000000E9
:1001800027030008270300082703000827030008A7
:100190002703000827030008270300082703000897
:1001A00027030008270300082703000800F002F8CF
:1001B00000F03CF80AA090E8000C82448344AAF1C5
:1001C0000107DA4501D100F031F8AFF2090EBAE8C3
:1001D0000F0013F0010F18BFFB1A43F0010318477B
:1001E0009C180000BC180000103A24BF78C878C1E1
:1001F000FAD8520724BF30C830C144BF04680C602D
:10020000704700000023002400250026103A28BF74
:1002100078C1FBD8520728BF30C148BF0B60704778
:100220001FB501F025FC1FBD10B510BD00F059F938
:100230001146FFF7F5FF00F0C5F900F077F903B4B8
:10024000FFF7F2FF03BC00F07FF900002C4B1968A8
:100250000868B0E8F04F80F30988BFF36F8F4FF064
:10026000000080F311887047000000000848006813
:10027000006880F308884FF0000080F3148862B6AD
:1002800061B6BFF34F8FBFF36F8F00DF00BF00BFBA
:1002900008ED00E0DFF80C00016841F47001016036
:1002A000704700BF88ED00E0EFF30980BFF36F8F68
:1002B000134B1A681EF0100F08BF20ED108A20E9BA
:1002C000F04F106009B44FF0A00080F31188BFF325
:1002D0004F8FBFF36F8F00F0DFFE4FF0000080F311
:1002E000118809BC19680868B0E8F04F1EF0100FBB
:1002F00008BFB0EC108A80F30988BFF36F8F704796
:1003000010000020EFF30580704700000948804787
:1003100009480047FEE7FEE7FEE7FEE7FEE7FEE7E7
:10032000FEE7FEE7FEE7FEE704480549054A064BFF
:1003300070470000A9050008AD010008F8A10020E1
:10034000F8A70020F8A30020F8A30020032A40F219
:10035000308010F0030C00F0158011F8013BBCF167
:10036000020F624498BF11F801CB00F8013B38BF7F
:1003700011F8013BA2F1040298BF00F801CB38BF8D
:1003800000F8013B11F0030300F05780083AC0F079
:10039000088051F8043B083A51F804CBA0E8081053
:1003A000F5E7121D5CBF51F8043B40F8043BAFF386
:1003B0000080D20724BF11F8013B11F801CB48BFE0
:1003C00011F8012B24BF00F8013B00F801CB48BF16
:1003D00000F8012B704702F0FF0343EA032242EAD0
:1003E000024200F05EB84FF0000200B5134694469A
:1003F0009646203922BFA0E80C50A0E80C50B1F17D
:100400002001BFF4F7AF090728BFA0E80C5048BF90
:100410000CC05DF804EB890028BF40F8042B08BF2E
:10042000704748BF20F8022B11F0804F18BF00F82A
:10043000012B704770477047704710B5203AC0F0E5
:100440000B80B1E81850203AA0E81850B1E81850D5
:10045000A0E81850BFF4F5AF5FEA027C24BFB1E812
:100460001850A0E8185044BF18C918C0BDE8104083
:100470005FEA827C24BF51F8043B40F8043B08BF8C
:100480007047D20728BF31F8023B48BF11F8012B53
:1004900028BF20F8023B48BF00F8012B70474FF0FF
:1004A00000020429C0F0128010F0030C3FF49DAF4D
:1004B000CCF1040CBCF1020F18BF00F8012BA8BF4F
:1004C00020F8022BA1EB0C01FFF78FBF5FEAC17C84
:1004D00024BF00F8012B00F8012B48BF00F8012BC6
:1004E0007047754600F02CF8AE4605006946534645
:1004F00020F00700854618B020B5FFF715FFBDE8CE
:1005000020404FF000064FF000074FF000084FF07A
:10051000000B21F00701AC46ACE8C009ACE8C0090B
:10052000ACE8C009ACE8C0098D46704710B5044678
:10053000AFF300802046BDE81040FFF780BE00000A
:100540000048704798A1002001491820ABBEFEE783
:1005500026000200704700001148016841F0400188
:1005600001601048016841F080610160011D0A6866
:100570000A60091D0A6842F080620A600A1D136859
:1005800003F040631360036843F08053036008681E
:1005900040F080500860106800F0405010607047D4
:1005A00030380240001802400548016841F47001EB
:1005B000016003494FF00060803908607047000017
:1005C00088ED00E01CB5FFF7C7FF00210120CDE951
:1005D00000010B46020303A1034801F06FF800F08D
:1005E0001BFDFEE74C454400650F00082DE9F04176
:1005F000134C0F460546E6682068001D00F08AFB94
:10060000681C07D137B12168BDE8F0410D48091DCC
:1006100000F0B9BB20683544B5424560216805D279
:10062000A06BBDE8F041091D00F095BB606B091D92
:1006300000F091FBA06A854200D2A562BDE8F0817E
:10064000100000205C0100202DE9F041054600F07B
:10065000A7FB2E4CA068401CA06020682C4F10B156
:10066000606940B32DE02560A068012829D10026EB
:1006700006EB860007EB800000F05FFB761C052E82
:10068000F6D32348643000F058FB2148783000F05E
:1006900054FB1F488C3000F050FB1D48A03000F088
:1006A0004CFB1B48B43000F048FB194864306063D1
:1006B0001430A06305E02068E96AC06A884200D867
:1006C0002560606A401C60622864E86A216988428B
:1006D00000D9206100EB800007EB8000291D00F0AD
:1006E00052FB00F07DFB606900280CD02068E96AAD
:1006F000C06A884207D207494FF080500860BFF3B4
:100700004F8FBFF36F8FBDE8F08100001000002015
:10071000A800002004ED00E010B500F041FB0E4CF5
:100720002068A0B90D4800F008FB0C48143000F018
:1007300004FB0A48E0601430206100220C210520EF
:1007400000F05AFD206010B105A100F0A7FBBDE844
:10075000104000F045BB00004C000020700100205C
:10076000546D72510000000030B4026C0B46002A38
:100770000BD0C1681144C1608468A14201D30168F3
:10078000C16030BC1846FFF7E1BD30BC70472DE9B1
:10079000F041856B174604460026026C82B1C7B152
:1007A000E068FFF7D3FDE168206C091AE160226878
:1007B000914202D2A168081AE060022F16D017E019
:1007C0002068A8B9A06801F01FF806460020A060C4
:1007D0000EE06068FFF7BAFD216C60680844606055
:1007E000A168884204D32068606001E005B16D1EF5
:1007F0006D1CA5633046BDE8F08110B50446006B62
:1008000000F002FB2046BDE8104000F0FDBA0000F9
:10081000144E154CA6F1A0074FF08058DFF84C900D
:1008200012E000BF00F0BCFAF068C568281D00F0B7
:1008300071FAA068401EA0606068401E606000F011
:10084000CFFA2846FFF7D9FF60680028EAD1386858
:100850000128F9D9C9F80080BFF34F8FBFF36F8F1C
:10086000F2E70000480100201000002004ED00E045
:100870002DE9F05F8846DDE90B941546834691002B
:100880009A460A9EA522206BFFF7A5FD6FF0030193
:10089000206B01EB8501084420F00707780708D09A
:1008A000A02080F31188BFF34F8FBFF36F8F00BF7D
:1008B000FDE70025B8F1000F0ED00020221818F82F
:1008C000001082F8341018F8001011B1401C0A28EA
:1008D000F4D384F83D5001E084F83450052E00D361
:1008E0000426E662C4E91265201D00F031FA04F125
:1008F000180000F02DFA2461C6F105006462A061C1
:10090000256584F8545052465946384600F0ECF9B3
:100910002060B9F1000F01D0C9F80040BDE8F09F98
:1009200070B5002441600B4D0061914206D8D11A88
:100930008269914206D2011D286907E09A4203D2DA
:10094000994201D3012403E0011DE86800F003FA95
:10095000204670BD4C00002010B5044600F020FA7F
:10096000A06B28B15FF0000400F03AFA204610BDF9
:100970000124F9E730B587B03A4D69E004980028C2
:1009800066DB069C606910B1201D00F0C3F903A866
:1009900000F0DAF8024604980A2859D2DFE800F09D
:1009A0000505052E344C05052E3494F8280040F03A
:1009B000010084F828000599A069059B01442046A0
:1009C000FFF7AEFFF8B1216A2046884794F8280067
:1009D00040073DD5002000900598A16900234218EA
:1009E0001946204601F012F868B9A02080F311885A
:1009F000BFF34F8FBFF36F8F00BFFDE714F8280FD1
:100A000020F00100207023E094F8280040F001005D
:100A100084F828000598A06128B181181346204663
:100A2000FFF77EFF14E0A02080F31188BFF34F8F03
:100A3000BFF36F8F00BFFDE794F82800810703D450
:100A4000204600F0E1F903E020F0010084F82800DE
:100A5000002204A9286800F055FD00288ED107B0B7
:100A600030BD00004C0000202DE9FC410F4605463A
:100A700000F00AFB01A800F067F80446019818B1DD
:100A800000F03CFFBDE8FC81254EAFB13069006845
:100A9000D8B30027291B3A46306800F013FA00F05B
:100AA0002DFF0028EED11F494FF080500860BFF3A2
:100AB0004F8FBFF36F8FE5E7A542EBD800F01EFF25
:100AC000F0682746C068C468201D00F023F994F838
:100AD000280041071AD5A0692B4641193A462046FD
:100AE000FFF71EFFB0B100200346014600902A46E2
:100AF000204600F08BFF68B9A02080F31188BFF377
:100B00004F8FBFF36F8F00BFFDE707E020F00100BC
:100B100084F82800216A20468847B3E70127B9E70F
:100B20004C00002004ED00E00648416B096829B143
:100B3000416BC968C9684968816270474FF0FF31ED
:100B4000FAE700001000002070B5054600F0F0FD47
:100B5000064E0446B068844203D200F009F8012032
:100B600000E0002028602046B46070BD4C000020EA
:100B7000F8B51A4D20E0C068C4680668201D00F072
:100B8000C9F8216A2046884794F82800400713D501
:100B9000A0693044B04206D924616060211DE86834
:100BA00000F0D9F808E000200346014600903246E4
:100BB000204600F02BFF38B1E86801680029DAD13F
:100BC0002969C5E90310F8BDA02080F31188BFF39F
:100BD0004F8FBFF36F8F00BFFDE700004C00002078
:100BE00009484068401C4FF0A00080F3118805D0F0
:100BF000BFF34F8FBFF36F8F00BFFDE7BFF34F8F82
:100C0000BFF36F8FFEE7000004000020074CE06890
:100C1000016841B1C0680021D0F80000FFF724FF4F
:100C2000FFF7A8FEF3E701210020F7E74C000020C2
:100C30002DE9F041044600F0B3F894F9455004F171
:100C4000240609E0606A48B1304600F01FFE08B192
:100C500000F0A4F96D1E6DB2002DF3DC4FF0FF36ED
:100C600084F8456000F0BCF800F09AF894F944501C
:100C700004F1100709E0206948B1384600F006FE8B
:100C800008B100F08BF96D1E6DB2002DF3DC84F815
:100C90004460BDE8F04100F0A3B8000070B5044620
:100CA0000025400704D004F00700C0F10800044408
:100CB00000F0EAF90A49486818B90A4820F0070024
:100CC00048600A6849F6F8731019984204D29042B5
:100CD00002D94B6808609D1800F010FE284670BDD0
:100CE00060000020A001002010B5031F4FF08074A9
:100CF0001C601B1F21F001011960191F044B0B60C0
:100D000014390A60091F6FF0020244380A6010BDEE
:100D1000E10B0008D0E9013201699A60D0E90123B2
:100D20005A604A68824201D182684A6000220261A8
:100D30000868401E08600868704700F108014FF01D
:100D4000FF32C0E90112C1600161002101607047FA
:100D500000210161704730B50B685A1C02D000F1C8
:100D6000080202E0026904E02246546825689D42B8
:100D7000FAD953684B6099608A60516008610168D4
:100D8000491C016030BD42684A6093688B6093687B
:100D90005960916008610168491C0160704700005A
:100DA000A02080F31188BFF34F8FBFF36F8F0A49E4
:100DB0004868401C486001280DD10848006810F0C0
:100DC000FF0F08D0A02080F31188BFF34F8FBFF32F
:100DD0006F8F00BFFDE770470400002004ED00E0C6
:100DE0000849486828B1401E486001D180F3118845
:100DF0007047A02080F31188BFF34F8FBFF36F8F30
:100E000000BFFDE704000020002808D0A02080F3E8
:100E10001188BFF34F8FBFF36F8F00BFFDE770479F
:100E20004FF0E02000210161816105494FF47A72A1
:100E30000968B1FBF2F1491E416107210161704768
:100E40000000002010B5FFF75DFA124910280FD3FB
:100E500000F1E02090F8F0030A78904208D2A02038
:100E600080F31188BFF34F8FBFF36F8F00BFFDE793
:100E700009480068896800F4E060884208D9A02029
:100E800080F31188BFF34F8FBFF36F8F00BFFDE773
:100E900010BD0000040000200CED00E010B5084B70
:100EA000002200BF53F832401CB1521C082AF9D36B
:100EB00010BD43F8321003EBC201486010BD0000C2
:100EC0006800002070B515460E460446FFF768FF1F
:100ED00094F944100020491C01D184F8440094F98D
:100EE0004510491C01D184F84500FFF779FFA06B3C
:100EF00028B92A46314604F1240000F06FF8204654
:100F0000BDE87040FFF794BE10B5020015D00F4841
:100F1000006B40B1A02080F31188BFF34F8FBFF367
:100F20006F8F00BFFDE700F0AFF800211046FFF71C
:100F30005DFB00F0E3FC002807D105494FF080502D
:100F40000860BFF34F8FBFF36F8F10BD10000020FC
:100F500004ED00E002490A6A0260C9684160704716
:100F6000100000200C4C4FF47A75206840F40050BB
:100F70002060206820F4804020602846FFF7C4FFEE
:100F8000206840F480402060206820F400502060F9
:100F90002846FFF7B9FFE8E714180240014901208D
:100FA000C86170471000002010B50C4650B10A49C6
:100FB00009681831FFF7CFFE2046BDE81040012137
:100FC000FFF714BBA02080F31188BFF34F8FBFF34E
:100FD0006F8F00BFFDE700001000002070B51446C1
:100FE0000D4668B10B4909681831FFF7CCFE0CB10A
:100FF0004FF0FF3521462846BDE87040FFF7F6BAAE
:10100000A02080F31188BFF34F8FBFF36F8F00BF15
:10101000FDE70000100000201CB517480024CDE9B2
:1010200000402346802215A1164800F047FB012806
:1010300003D100F0C5FC01280AD0401C1BD1A02020
:1010400080F31188BFF34F8FBFF36F8F00BFFDE7B1
:10105000A02080F31188BFF34F8FBFF36F8F064836
:101060004FF0FF312C38816201214161C460BDE83D
:101070001C4000F043B81CBD3C00002049444C45D6
:1010800000000000110800080248016B491C0163C0
:101090007047000010000020164810B5016B11B118
:1010A0000121C16110BD0021C1610169124A01E045
:1010B000B9B1491E01EB810352F82330002BF7D060
:1010C00001EB810302EB830202F1080453685B68C1
:1010D0005360A34201D15B685360DA68026001612A
:1010E00010BDA02080F31188BFF34F8FBFF36F8F27
:1010F00000BFFDE710000020A80000201CB5394803
:101100000168394A914208D1A02080F31188BFF3C9
:101110004F8FBFF36F8F00BFFDE700683249491E54
:10112000884208D1A02080F31188BFF34F8FBFF30E
:101130006F8F00BFFDE72D4908780190FF200870F0
:1011400008788DF800009DF800009DF8002000F060
:10115000F000904208D0A02080F31188BFF34F8F99
:10116000BFF36F8F00BFFDE79DF80000204C00F03B
:10117000A00020700720A06006E000BF9DF80020BE
:1011800052008DF80020401E9DF800201206F5D474
:10119000A060032808D0A02080F31188BFF34F8FF0
:1011A000BFF36F8F00BFFDE74FF44070A060019860
:1011B00008700C482030016841F47001016001683A
:1011C00041F070410160FFF72BFE00206060FFF7E7
:1011D00061F80848016841F040410160FFF746F8B6
:1011E00000201CBD00ED00E071C20F4100E400E0F2
:1011F0000400002034EF00E02DE9F04117460E46D0
:10120000050015D005FB06F05030FFF747FD040040
:101210000CD004F15000A6B12060C4E90F5620465E
:10122000012100F011F8204684F84C70BDE8F081EF
:10123000A02080F31188BFF34F8FBFF36F8F00BFE3
:10124000FDE72460E9E7000070B50D46040025D0F5
:10125000FFF7A6FDD4E90F20216802FB0011A16071
:101260000021A163216861600A46D4E90F01401E94
:1012700000FB0121E16021464FF0FF3001F8440FEF
:10128000487004F1100095B1FFF757FD04F12400F8
:10129000FFF753FDFFF7A4FD012070BDA02080F3F0
:1012A0001188BFF34F8FBFF36F8F00BFFDE7216938
:1012B0000029EFD000F0EAFA0028EBD004494FF003
:1012C00080500860BFF34F8FBFF36F8FE2E70000DD
:1012D00004ED00E02DE9FF4782B01D468A464FF03D
:1012E0000008040003D0BAF1000F09D013E0A020D9
:1012F00080F31188BFF34F8FBFF36F8F00BFFDE7FF
:10130000206C40B1A02080F31188BFF34F8FBFF352
:101310006F8F00BFFDE7022D0BD1E06B012808D0D5
:10132000A02080F31188BFF34F8FBFF36F8F00BFF2
:10133000FDE700F0EFF9404F4FF000094FF0805605
:1013400050B9049840B1A02080F31188BFF34F8FAB
:10135000BFF36F8F00BFFDE7FFF722FDA06BE16BCE
:10136000884207D3022D05D00498D0B1B8F1000F00
:101370001AD01EE02A4651462046FFF708FA616A55
:1013800019B104F1240000F081FA20B13E60BFF3EE
:101390004F8FBFF36F8FFFF723FD012006B0BDE82D
:1013A000F087FFF71DFD22E06846FFF7D3FD4FF001
:1013B0000108FFF715FDFFF767FEFFF7F1FC94F951
:1013C0004400401C01D184F8449094F94500401C2D
:1013D00001D184F84590FFF703FD04A9684600F0A9
:1013E00031F930B12046FFF723FC00F087FA0020E6
:1013F000D4E7FFF7D5FCA06BE16B884213D1FFF770
:10140000EFFC04F110000499FFF7CEFD2046FFF732
:101410000FFC00F073FA00289ED13E60BFF34F8F9F
:10142000BFF36F8F98E7FFF7DBFC2046FFF700FC68
:1014300000F064FA90E7000004ED00E02DE9F047C9
:101440001F4690468946040003D0B9F1000F09D029
:1014500013E0A02080F31188BFF34F8FBFF36F8F8D
:1014600000BFFDE7206C40B1A02080F31188BFF3DE
:101470004F8FBFF36F8F00BFFDE7022F0BD1E06BE3
:10148000012808D0A02080F31188BFF34F8FBFF34D
:101490006F8F00BFFDE7FFF7D5FCA020EFF31186AB
:1014A00080F31188BFF34F8FBFF36F8FA06BE16B99
:1014B000884207D3022F05D05FF0000086F3118821
:1014C000BDE8F08794F94550A06B3A46494620465E
:1014D000FFF75DF9681C04D06D1C84F845500120AD
:1014E000ECE7606A0028FAD004F1240000F0CEF99D
:1014F0000028F4D0B8F1000FF1D00121C8F8001095
:10150000EDE700002DE9F747002683B08A46040086
:1015100003D0BAF1000F09D013E0A02080F31188A6
:10152000BFF34F8FBFF36F8F00BFFDE7206C40B15B
:10153000A02080F31188BFF34F8FBFF36F8F00BFE0
:10154000FDE700F0E7F8DFF8F8804FF000094FF012
:10155000805750B9059840B1A02080F31188BFF39F
:101560004F8FBFF36F8F00BFFDE7FFF719FCA56B2F
:10157000C5B151462046FFF7F7F86D1EA5632069F7
:1015800050B104F1100000F081F928B1C8F80070E2
:10159000BFF34F8FBFF36F8FFFF722FC012006B020
:1015A000BDE8F087059808B11EB106E0FFF718FC0A
:1015B00027E06846FFF7CEFC0126FFF711FCFFF796
:1015C00063FDFFF7EDFB94F94400401C01D184F862
:1015D000449094F94500401C01D184F84590FFF7F0
:1015E000FFFB05A9684600F02DF8002820460AD028
:1015F000FFF71EFB00F082F92046FFF7ADF9002847
:10160000B3D00020CBE7FFF7A7F990B104F1240095
:101610000599FFF7C9FC2046FFF70AFB00F06EF9B9
:101620000028A2D1C8F80070BFF34F8FBFF36F8FAF
:101630009BE72046FFF7FCFA00F060F995E7000011
:1016400004ED00E02DE9F0410C46050011D0CCB1CD
:10165000FFF7A6FB184BDA686E682068911B471CE1
:1016600019D02F681B6A9F421BD0964219D80124BB
:1016700012E0A02080F31188BFF34F8FBFF36F8F6C
:1016800000BFFDE7A02080F31188BFF34F8FBFF3A9
:101690006F8F00BFFDE70024FFF7A2FB2046BDE8E7
:1016A000F081884205D9401A20602846FFF752FC95
:1016B000F1E700202060DAE7100000202DE9FF5F4D
:1016C0008346DDE90E87994616468A469000FFF765
:1016D000E5FA05001AD05820FFF7E0FA040012D00E
:1016E00025630021CDE90241CDE900874B46324612
:1016F00051465846FFF7BCF82046FEF7A5FF0120EB
:1017000004B0BDE8F09F2846FFF77EFB4FF0FF30A6
:10171000F6E700000548416919B1006B18B10020D7
:101720007047012070470220704700001000002021
:101730000148C06870470000100000202DE9F0410A
:101740002F4C0027206B28B1A069401CA0613846AF
:10175000BDE8F081E668761CE66014D1606B006835
:1017600040B1A02080F31188BFF34F8FBFF36F8F7C
:1017700000BFFDE7606BA16B6163A063206A401C42
:101780002062FFF7D1F9A06ADFF87880864209D39A
:10179000606B0068A0B1606BC068C568686886420D
:1017A00011D2A0622068C06A00EB800158F82100C5
:1017B000012800D90127E0690028C8D00127C6E721
:1017C0004FF0FF30EDE7281DFFF7A4FAA86A18B123
:1017D00005F11800FFF79EFAE86A2169884200D9EE
:1017E000206100EB800108EB8100291DFFF7CBFA97
:1017F000E86A2168C96A8842CAD30127C8E700009D
:1018000010000020A800002070B504004FF0000177
:1018100035D01C4D2868844208D0A02080F3118860
:10182000BFF34F8FBFF36F8F00BFFDE7E06C38B1A0
:10183000401EE064A36CE26A9A4220D048B11EE0E8
:10184000A02080F31188BFF34F8FBFF36F8F00BFCD
:10185000FDE7201DFFF75EFAA06CE062C0F1050015
:10186000A061E06A2969884200D92861064900EB35
:10187000800001EB8000211DFFF785FA0121084659
:1018800070BD000010000020A800002070B5C068E6
:10189000C46854B104F118000646FFF73BFA154D31
:1018A000286B58B13146144817E0A02080F3118806
:1018B000BFF34F8FBFF36F8F00BFFDE7201DFFF712
:1018C00029FAE06A2969884200D928610A4900EBAF
:1018D00080008C3901EB8000211DFFF754FAE06A8B
:1018E0002968C96A884202D90120E86170BD0020D8
:1018F00070BD000010000020340100202DE9F047E9
:101900002C4D00242746286B38B1FFF749FA286B85
:10191000401E2863286B48B146E0A02080F3118860
:10192000BFF34F8FBFF36F8F00BFFDE7A968224E53
:101930000120C9B3A6F18C0980463068E0B1F06897
:10194000C46804F11800FFF7E5F9201DFFF7E2F97C
:10195000E06A2969884200D9286100EB800109EB1F
:101960008100211DFFF70FFAE06A2968C96A8842E1
:10197000E3D3C5F81C80E0E70CB1FFF7D5F8AC69FC
:1019800044B14646FFF7DAFE00B1EE61641EF9D1BC
:101990000020A861E86938B10849012738070860C4
:1019A000BFF34F8FBFF36F8FFFF71AFA3846BDE8CA
:1019B000F0870000100000203401002004ED00E05A
:1019C0001CB5FEF7A9FE0D48006860B10B49042064
:1019D000091DCDE900018201002309A10A48FFF792
:1019E0006DFE002808D1A02080F31188BFF34F8F2F
:1019F000BFF36F8F00BFFDE71CBD00004C0000204F
:101A0000546D7220537663000D0C0008FEB51E461F
:101A100013460200089D4FF0000014D0134C2768B5
:101A2000002F0FD0CDE900130292062916DAFFF736
:101A300071FE02284FF000030ED000226946206894
:101A4000FFF748FCFEBDA02080F31188BFF34F8F45
:101A5000BFF36F8F00BFFDE72A46EFE70023324652
:101A600069463846FFF7EAFCFEBD00004C00002046
:101A70004FF04070E1EE100A704700009C1A000819
:101A80000000002068000000E8010008041B0008B6
:101A90006800002090A70000040200080024F40061
:101AA00000000000AAAAAAAA00000000000000008E
:101AB0000000000000000000000000000000000026
:101AC0000000000000000000000000000000000016
:101AD0000000000000000000000000000000000006
:101AE00000000000000000000000000000000000F6
:101AF00000000000000000000000000000000000E6
:041B000000000000E1
:04000005080001AD41
:00000001FF
